{
  "_format": "hh-sol-artifact-1",
  "contractName": "FHEBlackjack",
  "sourceName": "contracts/FHEBlackjack.sol",
  "abi": [
    {
      "inputs": [],
      "stateMutability": "nonpayable",
      "type": "constructor"
    },
    {
      "anonymous": false,
      "inputs": [
        {
          "indexed": true,
          "internalType": "address",
          "name": "player",
          "type": "address"
        },
        {
          "indexed": false,
          "internalType": "uint256",
          "name": "amount",
          "type": "uint256"
        }
      ],
      "name": "Deposit",
      "type": "event"
    },
    {
      "anonymous": false,
      "inputs": [
        {
          "indexed": true,
          "internalType": "address",
          "name": "player",
          "type": "address"
        },
        {
          "indexed": false,
          "internalType": "uint8",
          "name": "result",
          "type": "uint8"
        }
      ],
      "name": "GameEnded",
      "type": "event"
    },
    {
      "anonymous": false,
      "inputs": [
        {
          "indexed": true,
          "internalType": "address",
          "name": "player",
          "type": "address"
        },
        {
          "indexed": false,
          "internalType": "uint256",
          "name": "betAmount",
          "type": "uint256"
        }
      ],
      "name": "GameStarted",
      "type": "event"
    },
    {
      "inputs": [],
      "name": "deposit",
      "outputs": [],
      "stateMutability": "payable",
      "type": "function"
    },
    {
      "inputs": [
        {
          "internalType": "address",
          "name": "",
          "type": "address"
        }
      ],
      "name": "games",
      "outputs": [
        {
          "internalType": "uint8",
          "name": "playerCardCount",
          "type": "uint8"
        },
        {
          "internalType": "uint8",
          "name": "dealerCardCount",
          "type": "uint8"
        },
        {
          "internalType": "euint32",
          "name": "betAmount",
          "type": "bytes32"
        },
        {
          "internalType": "uint8",
          "name": "gameState",
          "type": "uint8"
        },
        {
          "internalType": "bool",
          "name": "isActive",
          "type": "bool"
        }
      ],
      "stateMutability": "view",
      "type": "function"
    },
    {
      "inputs": [],
      "name": "getBalance",
      "outputs": [
        {
          "internalType": "euint32",
          "name": "",
          "type": "bytes32"
        }
      ],
      "stateMutability": "view",
      "type": "function"
    },
    {
      "inputs": [],
      "name": "getContractBalance",
      "outputs": [
        {
          "internalType": "uint256",
          "name": "",
          "type": "uint256"
        }
      ],
      "stateMutability": "view",
      "type": "function"
    },
    {
      "inputs": [],
      "name": "getGameState",
      "outputs": [
        {
          "internalType": "bool",
          "name": "isActive",
          "type": "bool"
        },
        {
          "internalType": "uint8",
          "name": "state",
          "type": "uint8"
        }
      ],
      "stateMutability": "view",
      "type": "function"
    },
    {
      "inputs": [],
      "name": "hit",
      "outputs": [],
      "stateMutability": "nonpayable",
      "type": "function"
    },
    {
      "inputs": [],
      "name": "owner",
      "outputs": [
        {
          "internalType": "address",
          "name": "",
          "type": "address"
        }
      ],
      "stateMutability": "view",
      "type": "function"
    },
    {
      "inputs": [],
      "name": "protocolId",
      "outputs": [
        {
          "internalType": "uint256",
          "name": "",
          "type": "uint256"
        }
      ],
      "stateMutability": "pure",
      "type": "function"
    },
    {
      "inputs": [],
      "name": "stand",
      "outputs": [],
      "stateMutability": "nonpayable",
      "type": "function"
    },
    {
      "inputs": [
        {
          "internalType": "externalEuint32",
          "name": "encryptedBetAmount",
          "type": "bytes32"
        },
        {
          "internalType": "bytes",
          "name": "inputProof",
          "type": "bytes"
        }
      ],
      "name": "startGame",
      "outputs": [],
      "stateMutability": "nonpayable",
      "type": "function"
    },
    {
      "inputs": [],
      "name": "withdrawOwner",
      "outputs": [],
      "stateMutability": "nonpayable",
      "type": "function"
    }
  ],
  "bytecode": "0x608060405234801561001057600080fd5b5061018c6100b0604080516080810182526000808252602082018190529181018290526060810191909152506040805160808101825273687820221192c5b662b25367f70076a37bc79b6c815273848b0066793bcc60346da1f49049357399b8d595602082015273a02cda4ca3a71d7c46997716f4283aa851c2881291810191909152731364cbbf2cdf5032c47d8226a6f6fbd2afcdacac606082015290565b80517f9e7b61f58c47dc699ac88507c4f5bb9f121c03808c5676a8078fe583e464970080546001600160a01b03199081166001600160a01b039384161790915560208301517f9e7b61f58c47dc699ac88507c4f5bb9f121c03808c5676a8078fe583e46497018054831691841691909117905560408301517f9e7b61f58c47dc699ac88507c4f5bb9f121c03808c5676a8078fe583e46497028054831691841691909117905560608301517f9e7b61f58c47dc699ac88507c4f5bb9f121c03808c5676a8078fe583e46497038054909216921691909117905550565b600080546001600160a01b031916331790556110ce806101ad6000396000f3fe60806040526004361061009c5760003560e01c80638da5cb5b116100645780638da5cb5b146101a5578063b7d0628b146101dd578063c2897b1014610221578063d0e30db014610236578063da1f12ab1461023e578063e8cc00ad1461025357600080fd5b806312065fe0146100a15780632ae3594a146100d257806349115f15146100e95780636f9fb98a1461010957806379131a191461011e575b600080fd5b3480156100ad57600080fd5b50336000908152600260205260409020545b6040519081526020015b60405180910390f35b3480156100de57600080fd5b506100e7610268565b005b3480156100f557600080fd5b506100e7610104366004610e6f565b61032f565b34801561011557600080fd5b506100bf610471565b34801561012a57600080fd5b50610174610139366004610eeb565b60016020526000908152604090206014810154601582015460169092015460ff80831693610100938490048216939092808316929190041685565b6040805160ff968716815294861660208601528401929092529092166060820152901515608082015260a0016100c9565b3480156101b157600080fd5b506000546101c5906001600160a01b031681565b6040516001600160a01b0390911681526020016100c9565b3480156101e957600080fd5b503360009081526001602052604090206016015460ff61010082048116911660408051921515835260ff9091166020830152016100c9565b34801561022d57600080fd5b506100e76104bd565b6100e76105eb565b34801561024a57600080fd5b506127116100bf565b34801561025f57600080fd5b506100e76106c9565b33600090815260016020526040902060160154610100900460ff166102c55760405162461bcd60e51b815260206004820152600e60248201526d4e6f206163746976652067616d6560901b60448201526064015b60405180910390fd5b3360009081526001602081905260409091206016015460ff16146103225760405162461bcd60e51b815260206004820152601460248201527347616d65206e6f7420696e2070726f677265737360601b60448201526064016102bc565b61032d336001610749565b565b33600090815260016020526040902060160154610100900460ff16156103975760405162461bcd60e51b815260206004820152601860248201527f47616d6520616c726561647920696e2070726f6772657373000000000000000060448201526064016102bc565b60006103d98484848080601f0160208091040260200160405190810160405280939291908181526020018383808284376000920191909152506108e492505050565b3360008181526001602081905260409091206015810184905560148101805461ffff1990811690915560168201805490911661010117905592935061041e9190610749565b610429336000610749565b610434336001610749565b6040516000815233907fea32a03505fd9f04d664676d72295a86c5fb0465e69654751907ca305bc1d1c79060200160405180910390a25050505050565b600080546001600160a01b031633146104b85760405162461bcd60e51b81526020600482015260096024820152682737ba1037bbb732b960b91b60448201526064016102bc565b504790565b33600090815260016020526040902060160154610100900460ff166105155760405162461bcd60e51b815260206004820152600e60248201526d4e6f206163746976652067616d6560901b60448201526064016102bc565b3360009081526001602081905260409091206016015460ff16146105725760405162461bcd60e51b815260206004820152601460248201527347616d65206e6f7420696e2070726f677265737360601b60448201526064016102bc565b600060034442336040516020016105ae93929190928352602083019190915260601b6bffffffffffffffffffffffff1916604082015260540190565b6040516020818303038152906040528051906020012060001c6105d19190610f1b565b6105dc906002610f53565b90506105e833826108fb565b50565b600034116106345760405162461bcd60e51b81526020600482015260166024820152754d757374206465706f73697420736f6d657468696e6760501b60448201526064016102bc565b336000908152600260205260408120549061064e34610a67565b905061065a8282610a7a565b33600090815260026020526040902081905561067590610aac565b503360008181526002602052604090205461068f91610abc565b5060405134815233907fe1fffcc4923d04b559f4d29a8bfc6cda04eb5b0d3c460751c2402c5c5cc9109c9060200160405180910390a25050565b6000546001600160a01b0316331461070f5760405162461bcd60e51b81526020600482015260096024820152682737ba1037bbb732b960b91b60448201526064016102bc565b600080546040516001600160a01b03909116914780156108fc02929091818181858888f193505050501580156105e8573d6000803e3d6000fd5b6001600160a01b03821660009081526001602052604081209082610779576014820154610100900460ff16610782565b601482015460ff165b9050600a8160ff16106107c65760405162461bcd60e51b815260206004820152600c60248201526b12185b99081a5cc8199d5b1b60a21b60448201526064016102bc565b604080514360208201524291810191909152606085811b6bffffffffffffffffffffffff19169082015283151560f890811b607483015282901b6001600160f81b0319166075820152600090600d906076016040516020818303038152906040528051906020012060001c61083b9190610f1b565b610846906001610f6c565b9050600061085382610acf565b9050841561089957808460ff8516600a811061087157610871610f7f565b015561087e836001610f53565b60148501805460ff191660ff929092169190911790556108dc565b8084600a018460ff16600a81106108b2576108b2610f7f565b01556108bf836001610f53565b8460140160016101000a81548160ff021916908360ff1602179055505b505050505050565b60006108f283836004610adf565b90505b92915050565b6001600160a01b038216600090815260016020526040902060168101805461ffff191660ff841690811790915560020361098d57600061094882601501546109436002610a67565b610be4565b6001600160a01b03851660009081526002602052604090205490915061096e9082610a7a565b6001600160a01b038516600090815260026020526040902055506109da565b8160ff166004036109da576001600160a01b03831660009081526002602052604090205460158201546109c09190610a7a565b6001600160a01b0384166000908152600260205260409020555b6001600160a01b0383166000908152600260205260409020546109fc90610aac565b506001600160a01b038316600090815260026020526040902054610a209084610abc565b5060405160ff831681526001600160a01b038416907fecdab0d30ae5a2b8d283acf9ed4856306f12f29ef8069fac9148d3d2ac6b4b149060200160405180910390a2505050565b60006108f58263ffffffff166004610c16565b600082610a8e57610a8b6000610a67565b92505b81610aa057610a9d6000610a67565b91505b6108f283836000610cb3565b6000610ab88230610d77565b5090565b6000610ac88383610d77565b5090919050565b60006108f58260ff166002610c16565b6000805160206110598339815191525460405163196d0b9b60e01b8152600091600080516020611079833981519152916001600160a01b039091169063196d0b9b90610b35908890339089908990600401610fb7565b6020604051808303816000875af1158015610b54573d6000803e3d6000fd5b505050506040513d601f19601f82011682018060405250810190610b78919061102b565b8154604051630f8e573b60e21b8152600481018390523360248201529193506001600160a01b031690633e395cec90604401600060405180830381600087803b158015610bc457600080fd5b505af1158015610bd8573d6000803e3d6000fd5b50505050509392505050565b600082610bf857610bf56000610a67565b92505b81610c0a57610c076000610a67565b91505b6108f283836000610df4565b60008051602061105983398151915254604051639cd07acb60e01b8152600091600080516020611079833981519152916001600160a01b0390911690639cd07acb90610c689087908790600401611044565b6020604051808303816000875af1158015610c87573d6000803e3d6000fd5b505050506040513d601f19601f82011682018060405250810190610cab919061102b565b949350505050565b6000808215610cc75750600160f81b610ccb565b5060005b6000805160206110598339815191525460405163022f65e760e31b815260048101879052602481018690526001600160f81b031983166044820152600080516020611079833981519152916001600160a01b03169063117b2f38906064015b6020604051808303816000875af1158015610d49573d6000803e3d6000fd5b505050506040513d601f19601f82011682018060405250810190610d6d919061102b565b9695505050505050565b60006000805160206110798339815191528054604051635ca4b5b160e11b8152600481018690526001600160a01b03858116602483015292935091169063b9496b6290604401600060405180830381600087803b158015610dd757600080fd5b505af1158015610deb573d6000803e3d6000fd5b50505050505050565b6000808215610e085750600160f81b610e0c565b5060005b60008051602061105983398151915254604051630afe14ad60e31b815260048101879052602481018690526001600160f81b031983166044820152600080516020611079833981519152916001600160a01b0316906357f0a56890606401610d2a565b600080600060408486031215610e8457600080fd5b83359250602084013567ffffffffffffffff80821115610ea357600080fd5b818601915086601f830112610eb757600080fd5b813581811115610ec657600080fd5b876020828501011115610ed857600080fd5b6020830194508093505050509250925092565b600060208284031215610efd57600080fd5b81356001600160a01b0381168114610f1457600080fd5b9392505050565b600082610f3857634e487b7160e01b600052601260045260246000fd5b500690565b634e487b7160e01b600052601160045260246000fd5b60ff81811683821601908111156108f5576108f5610f3d565b808201808211156108f5576108f5610f3d565b634e487b7160e01b600052603260045260246000fd5b60548110610fb357634e487b7160e01b600052602160045260246000fd5b9052565b8481526000602060018060a01b038616602084015260806040840152845180608085015260005b81811015610ffa5786810183015185820160a001528201610fde565b50600060a0828601015260a0601f19601f830116850101925050506110226060830184610f95565b95945050505050565b60006020828403121561103d57600080fd5b5051919050565b82815260408101610f146020830184610f9556fe9e7b61f58c47dc699ac88507c4f5bb9f121c03808c5676a8078fe583e46497019e7b61f58c47dc699ac88507c4f5bb9f121c03808c5676a8078fe583e4649700a264697066735822122046073ad263f9d5e09bdde0b8c6c14135e9b84fb7046489c351dcf5e1a3b159d364736f6c63430008180033",
  "linkReferences": {},
  "deployedLinkReferences": {}
}