{
  "_format": "hh-sol-artifact-1",
  "contractName": "FHEBlackjackGatewayHarness",
  "sourceName": "contracts/mocks/FHEBlackjackGatewayHarness.sol",
  "abi": [
    {
      "inputs": [
        {
          "internalType": "uint8",
          "name": "value",
          "type": "uint8"
        }
      ],
      "name": "CardOutOfRange",
      "type": "error"
    },
    {
      "inputs": [
        {
          "internalType": "address",
          "name": "player",
          "type": "address"
        }
      ],
      "name": "GameInProgress",
      "type": "error"
    },
    {
      "inputs": [],
      "name": "HandlesAlreadySavedForRequestID",
      "type": "error"
    },
    {
      "inputs": [
        {
          "internalType": "uint256",
          "name": "requestId",
          "type": "uint256"
        }
      ],
      "name": "InvalidReveal",
      "type": "error"
    },
    {
      "inputs": [
        {
          "internalType": "address",
          "name": "player",
          "type": "address"
        }
      ],
      "name": "NoActiveGame",
      "type": "error"
    },
    {
      "inputs": [
        {
          "internalType": "uint256",
          "name": "requestId",
          "type": "uint256"
        }
      ],
      "name": "RevealPending",
      "type": "error"
    },
    {
      "inputs": [
        {
          "internalType": "uint8",
          "name": "action",
          "type": "uint8"
        }
      ],
      "name": "UnsupportedRevealAction",
      "type": "error"
    },
    {
      "anonymous": false,
      "inputs": [
        {
          "indexed": true,
          "internalType": "address",
          "name": "player",
          "type": "address"
        },
        {
          "indexed": false,
          "internalType": "uint8",
          "name": "cardValue",
          "type": "uint8"
        },
        {
          "indexed": false,
          "internalType": "uint8",
          "name": "cardIndex",
          "type": "uint8"
        },
        {
          "indexed": false,
          "internalType": "uint8",
          "name": "newScore",
          "type": "uint8"
        },
        {
          "indexed": false,
          "internalType": "uint256",
          "name": "requestId",
          "type": "uint256"
        }
      ],
      "name": "DealerCardRevealed",
      "type": "event"
    },
    {
      "anonymous": false,
      "inputs": [
        {
          "indexed": true,
          "internalType": "address",
          "name": "player",
          "type": "address"
        },
        {
          "indexed": false,
          "internalType": "uint256",
          "name": "amount",
          "type": "uint256"
        }
      ],
      "name": "Deposit",
      "type": "event"
    },
    {
      "anonymous": false,
      "inputs": [
        {
          "indexed": true,
          "internalType": "address",
          "name": "player",
          "type": "address"
        },
        {
          "indexed": false,
          "internalType": "bool",
          "name": "isPlayerHand",
          "type": "bool"
        },
        {
          "indexed": false,
          "internalType": "uint8",
          "name": "cardIndex",
          "type": "uint8"
        },
        {
          "indexed": false,
          "internalType": "uint256",
          "name": "requestId",
          "type": "uint256"
        }
      ],
      "name": "DuplicateCardResampled",
      "type": "event"
    },
    {
      "anonymous": false,
      "inputs": [
        {
          "indexed": true,
          "internalType": "address",
          "name": "player",
          "type": "address"
        }
      ],
      "name": "ForceReset",
      "type": "event"
    },
    {
      "anonymous": false,
      "inputs": [
        {
          "indexed": true,
          "internalType": "address",
          "name": "player",
          "type": "address"
        },
        {
          "indexed": false,
          "internalType": "uint256",
          "name": "betAmount",
          "type": "uint256"
        },
        {
          "indexed": false,
          "internalType": "uint256",
          "name": "requestId",
          "type": "uint256"
        }
      ],
      "name": "GameStarted",
      "type": "event"
    },
    {
      "anonymous": false,
      "inputs": [
        {
          "indexed": true,
          "internalType": "address",
          "name": "player",
          "type": "address"
        },
        {
          "indexed": false,
          "internalType": "uint8",
          "name": "playerCardOne",
          "type": "uint8"
        },
        {
          "indexed": false,
          "internalType": "uint8",
          "name": "playerCardTwo",
          "type": "uint8"
        },
        {
          "indexed": false,
          "internalType": "uint8",
          "name": "dealerUpCard",
          "type": "uint8"
        },
        {
          "indexed": false,
          "internalType": "uint256",
          "name": "requestId",
          "type": "uint256"
        }
      ],
      "name": "InitialHandRevealed",
      "type": "event"
    },
    {
      "anonymous": false,
      "inputs": [
        {
          "indexed": true,
          "internalType": "address",
          "name": "player",
          "type": "address"
        },
        {
          "indexed": false,
          "internalType": "uint256",
          "name": "claimedAmount",
          "type": "uint256"
        },
        {
          "indexed": false,
          "internalType": "uint256",
          "name": "revealedAmount",
          "type": "uint256"
        }
      ],
      "name": "InvalidBetReveal",
      "type": "event"
    },
    {
      "anonymous": false,
      "inputs": [
        {
          "indexed": true,
          "internalType": "address",
          "name": "player",
          "type": "address"
        },
        {
          "indexed": false,
          "internalType": "uint8",
          "name": "cardValue",
          "type": "uint8"
        },
        {
          "indexed": false,
          "internalType": "uint8",
          "name": "cardIndex",
          "type": "uint8"
        },
        {
          "indexed": false,
          "internalType": "uint8",
          "name": "newScore",
          "type": "uint8"
        },
        {
          "indexed": false,
          "internalType": "uint256",
          "name": "requestId",
          "type": "uint256"
        }
      ],
      "name": "PlayerCardRevealed",
      "type": "event"
    },
    {
      "anonymous": false,
      "inputs": [
        {
          "indexed": true,
          "internalType": "address",
          "name": "player",
          "type": "address"
        },
        {
          "indexed": false,
          "internalType": "uint8",
          "name": "result",
          "type": "uint8"
        },
        {
          "indexed": false,
          "internalType": "uint256",
          "name": "payout",
          "type": "uint256"
        },
        {
          "indexed": false,
          "internalType": "uint8",
          "name": "playerScore",
          "type": "uint8"
        },
        {
          "indexed": false,
          "internalType": "uint8",
          "name": "dealerScore",
          "type": "uint8"
        }
      ],
      "name": "RoundSettled",
      "type": "event"
    },
    {
      "anonymous": false,
      "inputs": [
        {
          "indexed": true,
          "internalType": "address",
          "name": "player",
          "type": "address"
        },
        {
          "indexed": false,
          "internalType": "uint256",
          "name": "amount",
          "type": "uint256"
        }
      ],
      "name": "Withdrawal",
      "type": "event"
    },
    {
      "inputs": [],
      "name": "deposit",
      "outputs": [],
      "stateMutability": "payable",
      "type": "function"
    },
    {
      "inputs": [],
      "name": "forceReset",
      "outputs": [],
      "stateMutability": "nonpayable",
      "type": "function"
    },
    {
      "inputs": [],
      "name": "getBalance",
      "outputs": [
        {
          "internalType": "uint256",
          "name": "",
          "type": "uint256"
        }
      ],
      "stateMutability": "view",
      "type": "function"
    },
    {
      "inputs": [],
      "name": "getDealerVisibleCards",
      "outputs": [
        {
          "internalType": "uint8[]",
          "name": "cards",
          "type": "uint8[]"
        }
      ],
      "stateMutability": "view",
      "type": "function"
    },
    {
      "inputs": [],
      "name": "getGameState",
      "outputs": [
        {
          "internalType": "bool",
          "name": "isActive",
          "type": "bool"
        },
        {
          "internalType": "uint8",
          "name": "state",
          "type": "uint8"
        },
        {
          "internalType": "uint8",
          "name": "playerScore",
          "type": "uint8"
        },
        {
          "internalType": "uint8",
          "name": "dealerUpCard",
          "type": "uint8"
        },
        {
          "internalType": "uint8",
          "name": "playerCardCount",
          "type": "uint8"
        },
        {
          "internalType": "uint8",
          "name": "dealerCardCount",
          "type": "uint8"
        },
        {
          "internalType": "uint256",
          "name": "pendingRequestId",
          "type": "uint256"
        }
      ],
      "stateMutability": "view",
      "type": "function"
    },
    {
      "inputs": [],
      "name": "getPlayerCards",
      "outputs": [
        {
          "internalType": "uint8[]",
          "name": "cards",
          "type": "uint8[]"
        }
      ],
      "stateMutability": "view",
      "type": "function"
    },
    {
      "inputs": [],
      "name": "hit",
      "outputs": [],
      "stateMutability": "nonpayable",
      "type": "function"
    },
    {
      "inputs": [
        {
          "internalType": "uint256",
          "name": "",
          "type": "uint256"
        }
      ],
      "name": "mockCleartexts",
      "outputs": [
        {
          "internalType": "bytes",
          "name": "",
          "type": "bytes"
        }
      ],
      "stateMutability": "view",
      "type": "function"
    },
    {
      "inputs": [
        {
          "internalType": "uint256",
          "name": "requestId",
          "type": "uint256"
        },
        {
          "internalType": "bytes",
          "name": "cleartexts",
          "type": "bytes"
        },
        {
          "internalType": "bytes",
          "name": "",
          "type": "bytes"
        }
      ],
      "name": "onReveal",
      "outputs": [
        {
          "internalType": "bool",
          "name": "",
          "type": "bool"
        }
      ],
      "stateMutability": "nonpayable",
      "type": "function"
    },
    {
      "inputs": [
        {
          "internalType": "uint256",
          "name": "requestId",
          "type": "uint256"
        }
      ],
      "name": "performMockReveal",
      "outputs": [],
      "stateMutability": "nonpayable",
      "type": "function"
    },
    {
      "inputs": [],
      "name": "protocolId",
      "outputs": [
        {
          "internalType": "uint256",
          "name": "",
          "type": "uint256"
        }
      ],
      "stateMutability": "pure",
      "type": "function"
    },
    {
      "inputs": [],
      "name": "remainingCards",
      "outputs": [
        {
          "internalType": "uint256",
          "name": "",
          "type": "uint256"
        }
      ],
      "stateMutability": "view",
      "type": "function"
    },
    {
      "inputs": [
        {
          "internalType": "uint8[]",
          "name": "cards",
          "type": "uint8[]"
        }
      ],
      "name": "setDeck",
      "outputs": [],
      "stateMutability": "nonpayable",
      "type": "function"
    },
    {
      "inputs": [],
      "name": "stand",
      "outputs": [],
      "stateMutability": "nonpayable",
      "type": "function"
    },
    {
      "inputs": [
        {
          "internalType": "uint256",
          "name": "betAmountWei",
          "type": "uint256"
        },
        {
          "internalType": "externalEuint128",
          "name": "",
          "type": "bytes32"
        },
        {
          "internalType": "bytes",
          "name": "",
          "type": "bytes"
        }
      ],
      "name": "startGame",
      "outputs": [],
      "stateMutability": "nonpayable",
      "type": "function"
    },
    {
      "inputs": [
        {
          "internalType": "uint256",
          "name": "amount",
          "type": "uint256"
        }
      ],
      "name": "withdraw",
      "outputs": [],
      "stateMutability": "nonpayable",
      "type": "function"
    }
  ],
  "bytecode": "0x608060405234801561001057600080fd5b5061018c6100b0604080516080810182526000808252602082018190529181018290526060810191909152506040805160808101825273687820221192c5b662b25367f70076a37bc79b6c815273848b0066793bcc60346da1f49049357399b8d595602082015273a02cda4ca3a71d7c46997716f4283aa851c2881291810191909152731364cbbf2cdf5032c47d8226a6f6fbd2afcdacac606082015290565b80517f9e7b61f58c47dc699ac88507c4f5bb9f121c03808c5676a8078fe583e464970080546001600160a01b03199081166001600160a01b039384161790915560208301517f9e7b61f58c47dc699ac88507c4f5bb9f121c03808c5676a8078fe583e46497018054831691841691909117905560408301517f9e7b61f58c47dc699ac88507c4f5bb9f121c03808c5676a8078fe583e46497028054831691841691909117905560608301517f9e7b61f58c47dc699ac88507c4f5bb9f121c03808c5676a8078fe583e46497038054909216921691909117905550565b613492806200019c6000396000f3fe6080604052600436106100f35760003560e01c8063c1be75711161008a578063da1f12ab11610059578063da1f12ab146102c5578063ee9436a7146102da578063f473752314610307578063feb308131461032957600080fd5b8063c1be757114610258578063c2897b1014610288578063cb9f68af1461029d578063d0e30db0146102bd57600080fd5b80632e1a7d4d116100c65780632e1a7d4d146101805780638b680cc3146101a0578063b7d0628b146101b5578063bd42b0141461024357600080fd5b806306e19c3d146100f857806312065fe01461011a57806318c838b21461014b5780632ae3594a1461016b575b600080fd5b34801561010457600080fd5b50610118610113366004612d9c565b61033e565b005b34801561012657600080fd5b50336000908152600160205260409020545b6040519081526020015b60405180910390f35b34801561015757600080fd5b50610118610166366004612e4e565b610439565b34801561017757600080fd5b5061011861083e565b34801561018c57600080fd5b5061011861019b366004612ece565b610ab8565b3480156101ac57600080fd5b50610118610bdd565b3480156101c157600080fd5b503360009081526020818152604091829020600381015460018201546019830154601a90930154855160ff610100850481161515825292831695810195909552600160201b8304821695850195909552918216606084015262010000810482166080840152630100000090041660a082015260c081019190915260e001610142565b34801561024f57600080fd5b50610138610ca2565b34801561026457600080fd5b50610278610273366004612f57565b610cb9565b6040519015158152602001610142565b34801561029457600080fd5b50610118611071565b3480156102a957600080fd5b506101186102b8366004612ece565b611216565b610118611326565b3480156102d157600080fd5b50612711610138565b3480156102e657600080fd5b506102fa6102f5366004612ece565b6113ca565b6040516101429190612fc4565b34801561031357600080fd5b5061031c611464565b6040516101429190613013565b34801561033557600080fd5b5061031c611589565b61034a60036000612c66565b60005b815181101561043057600082828151811061036a5761036a61305a565b6020026020010151905060018160ff161015801561038c575060348160ff1611155b6103d15760405162461bcd60e51b815260206004820152601160248201527043617264206f7574206f662072616e676560781b60448201526064015b60405180910390fd5b6003805460018181018355600092909252602081047fc2575a0e9e593c00f959f8c92f12db2869c3395a3b0502d05e2516446f71f85b01805460ff948516601f9093166101000a9283029490920219909116929092179091550161034d565b50506000600455565b3360009081526020819052604090206003810154610100900460ff16156104a25760405162461bcd60e51b815260206004820152601860248201527f47616d6520616c726561647920696e2070726f6772657373000000000000000060448201526064016103c8565b601a810154156104c45760405162461bcd60e51b81526004016103c890613070565b600085116105065760405162461bcd60e51b815260206004820152600f60248201526e0426574206d757374206265203e203608c1b60448201526064016103c8565b3360009081526001602052604090205485111561055c5760405162461bcd60e51b8152602060048201526014602482015273496e73756666696369656e742062616c616e636560601b60448201526064016103c8565b336000908152600160205260408120805487929061057b9084906130ae565b9091555061058a90508161166c565b848155600281018590556003810180546001808401805460ff1916909117905565ffffffffffff19166101001790556105c1612c8e565b6105c9612c8e565b6105d16117d6565b825260ff1682526105e06117d6565b60208381019190915260ff91909116908301526105fb6117d6565b60408381019190915260ff91909116908301526106166117d6565b606083810191825260ff92831690850190815284513360009081526007602090815260408083208054838b01518916610100908102968a1661ffff199283161796909617909155818a015160088452828520805497518a1690960298169516949094179590951790915584516004880155928401516005870155830151600e86015551600f85015560038401805463ffff0000191663020200001790556106bb611879565b601a8501819055601b8501805491925060019160ff1916828002179055506040805160808101909152338152602081016001815260006020808301829052604092830182905284825260028152919020825181546001600160a01b039091166001600160a01b031982168117835592840151919283916001600160a81b03191617600160a01b836004811115610753576107536130c1565b0217905550604082810151825460609485015161ffff60a81b19909116600160a81b60ff9384160260ff60b01b191617600160b01b91831691909102179092558551602080880151888401518451938616928401929092528416928201929092529116918101919091526001600160801b0389166080820152889060a00160408051601f198184030181529181526000848152600660205220906107f79082613159565b50604080518a81526020810184905233917f2ebc740a82c0c6454a29c8aa9db57c66257e2f17d38a783c83c83dd49f52e0fb910160405180910390a2505050505050505050565b3360009081526020819052604090206003810154610100900460ff166108975760405162461bcd60e51b815260206004820152600e60248201526d4e6f206163746976652067616d6560901b60448201526064016103c8565b601a810154156108b95760405162461bcd60e51b81526004016103c890613070565b600381015462010000900460ff16600a81106109035760405162461bcd60e51b815260206004820152600960248201526812185b9908199d5b1b60ba1b60448201526064016103c8565b60008061090e6117d6565b3360009081526007602052604090209193509150829060ff8516600a81106109385761093861305a565b602091828204019190066101000a81548160ff021916908360ff16021790555080846004018460ff16600a81106109715761097161305a565b015561097e836001613219565b8460030160026101000a81548160ff021916908360ff16021790555060006109a4611879565b601a8601819055601b86018054600260ff19909116811790915560408051608081018252338152602080820184815260ff8a16838501526000606084018190528681529490915291909220825181546001600160a01b039091166001600160a01b0319821681178355925194955092939092909183916001600160a81b03191617600160a01b836004811115610a3c57610a3c6130c1565b0217905550604082810151825460609094015161ffff60a81b19909416600160a81b60ff9283160260ff60b01b191617600160b01b9482169490940293909317909155805191851660208301520160408051601f19818403018152918152600083815260066020522090610ab09082613159565b505050505050565b60008111610afd5760405162461bcd60e51b81526020600482015260126024820152710416d6f756e74206d757374206265203e20360741b60448201526064016103c8565b33600090815260016020526040902054811115610b535760405162461bcd60e51b8152602060048201526014602482015273496e73756666696369656e742062616c616e636560601b60448201526064016103c8565b3360009081526001602052604081208054839290610b729084906130ae565b9091555050604051339082156108fc029083906000818181858888f19350505050158015610ba4573d6000803e3d6000fd5b5060405181815233907f7fcf532c15f0a6db0bd6d0e038bea71d30d808c7d98cb3bf7268a95bf5081b659060200160405180910390a250565b3360009081526020819052604090206003810154610100900460ff16610c185760405163ced5326f60e01b81523360048201526024016103c8565b601a81015415610c435780601a015460405163f3c8229d60e01b81526004016103c891815260200190565b80543360009081526001602052604081208054839290610c64908490613232565b90915550610c7390508261166c565b60405133907f922266fb1e763ddcdd5e249b47cd8c84ba8a773e5188bef1471abcd480fc9d2490600090a25050565b600454600354600091610cb4916130ae565b905090565b600083815260026020908152604080832081516080810190925280546001600160a01b03811683528493830190600160a01b900460ff166004811115610d0157610d016130c1565b6004811115610d1257610d126130c1565b8152905460ff600160a81b820481166020840152600160b01b9091041660409091015280519091506001600160a01b0316610d6357604051634574ee2760e01b8152600481018690526024016103c8565b80516001600160a01b03166000908152602081905260409020601a8101548614610da357604051634574ee2760e01b8152600481018790526024016103c8565b600086815260026020908152604080832080546001600160b81b031916905560069091528120610dd291612cac565b6000601a820155600182602001516004811115610df157610df16130c1565b03610f655760008060008088806020019051810190610e109190613245565b93509350935093508460000154816001600160801b031614610ec65785518554604080519182526001600160801b03841660208301526001600160a01b03909216917fd0d70f1d52516d7c8a0a12261ee4254204509ffaae5b2cc9bf9a4aedae49c87d910160405180910390a2845486516001600160a01b031660009081526001602052604081208054909190610ea8908490613232565b90915550610eb790508561166c565b6001965050505050505061106a565b60038501805460ff191660019081179091556000600287018190558751610ef0928892889161189b565b610f03576001965050505050505061106a565b610f158587600001518560018061189b565b610f28576001965050505050505061106a565b610f3a8587600001518460008061189b565b610f4d576001965050505050505061106a565b610f5c8587600001518c61194a565b50505050611063565b600282602001516004811115610f7d57610f7d6130c1565b03610fac57600085806020019051810190610f9891906132b0565b9050610fa68284838a611a90565b50611063565b600382602001516004811115610fc457610fc46130c1565b03610fed57600085806020019051810190610fdf91906132b0565b9050610fa68284838a611bc4565b600482602001516004811115611005576110056130c1565b0361102e5760008580602001905181019061102091906132b0565b9050610fa68284838a611f48565b81602001516004811115611044576110446130c1565b604051633f14c87f60e11b815260ff90911660048201526024016103c8565b6001925050505b9392505050565b3360009081526020819052604090206003810154610100900460ff166110ca5760405162461bcd60e51b815260206004820152600e60248201526d4e6f206163746976652067616d6560901b60448201526064016103c8565b601a810154156110ec5760405162461bcd60e51b81526004016103c890613070565b60006110f6611879565b601a8301819055601b8301805460ff19166003908117909155604080516080810182523381526020808201938452600182840152600060608301819052858152600290915291909120815181546001600160a01b031981166001600160a01b039092169182178355935194955091939092909183916001600160a81b03191617600160a01b83600481111561118d5761118d6130c1565b0217905550604082810151825460609094015161ffff60a81b19909416600160a81b60ff9283160260ff60b01b191617600160b01b9482169490940293909317909155336000908152600860209081528282205483516101009091049094168482015282518085038201815293830183528482526006905220906112119082613159565b505050565b6000818152600660205260408120805461122f906130d7565b80601f016020809104026020016040519081016040528092919081815260200182805461125b906130d7565b80156112a85780601f1061127d576101008083540402835291602001916112a8565b820191906000526020600020905b81548152906001019060200180831161128b57829003601f168201915b5050505050905080516000036112f55760405162461bcd60e51b8152602060048201526012602482015271139bc81c195b991a5b99c81c185e5b1bd85960721b60448201526064016103c8565b600082815260066020526040812061130c91612cac565b611211828260405180602001604052806000815250610cb9565b6000341161136f5760405162461bcd60e51b81526020600482015260166024820152754d757374206465706f73697420736f6d657468696e6760501b60448201526064016103c8565b336000908152600160205260408120805434929061138e908490613232565b909155505060405134815233907fe1fffcc4923d04b559f4d29a8bfc6cda04eb5b0d3c460751c2402c5c5cc9109c9060200160405180910390a2565b600660205260009081526040902080546113e3906130d7565b80601f016020809104026020016040519081016040528092919081815260200182805461140f906130d7565b801561145c5780601f106114315761010080835404028352916020019161145c565b820191906000526020600020905b81548152906001019060200180831161143f57829003601f168201915b505050505081565b3360009081526020819052604081206003810154606092906301000000900460ff1681036114a2575050604080516000815260208101909152919050565b601b820154610100900460ff16156114c9575060038101546301000000900460ff166114cd565b5060015b8060ff1667ffffffffffffffff8111156114e9576114e9612d46565b604051908082528060200260200182016040528015611512578160200160208202803683370190505b50925060005b8160ff168160ff16101561158357826019018160ff16600a811061153e5761153e61305a565b602091828204019190069054906101000a900460ff16848260ff16815181106115695761156961305a565b60ff90921660209283029190910190910152600101611518565b50505090565b33600090815260208190526040902060038101546060919062010000900460ff1667ffffffffffffffff8111156115c2576115c2612d46565b6040519080825280602002602001820160405280156115eb578160200160208202803683370190505b50915060005b600382015460ff620100009091048116908216101561166757816018018160ff16600a81106116225761162261305a565b602091828204019190069054906101000a900460ff16838260ff168151811061164d5761164d61305a565b60ff909216602092830291909101909101526001016115f1565b505090565b601a8101541561169b57601a81018054600090815260026020526040812080546001600160b81b031916905590555b60005b600382015460ff6201000090910481169082161015611717576000826018018260ff16600a81106116d1576116d161305a565b602091828204019190066101000a81548160ff021916908360ff1602179055506000801b826004018260ff16600a811061170d5761170d61305a565b015560010161169e565b5060005b600382015460ff630100000090910481169082161015611795576000826019018260ff16600a811061174f5761174f61305a565b602091828204019190066101000a81548160ff021916908360ff1602179055506000801b82600e018260ff16600a811061178b5761178b61305a565b015560010161171b565b5060008082556002820181905560038201805460018401805460ff1916905565ffffffffffff19169055601b8201805463ffffffff19169055601c90910155565b60035460045460009182911061181f5760405162461bcd60e51b815260206004820152600e60248201526d111958dac8195e1a185d5cdd195960921b60448201526064016103c8565b6003600454815481106118345761183461305a565b90600052602060002090602091828204019190069054906101000a900460ff1691506001600460008282546118699190613232565b90915550919260ff841692509050565b600060016005600082825461188e9190613232565b9091555050600554919050565b60006118a786856123fc565b6118bf576118b786868486612477565b506000611941565b81156119035783866018018460ff16600a81106118de576118de61305a565b602091828204019190066101000a81548160ff021916908360ff16021790555061193d565b83866019018460ff16600a811061191c5761191c61305a565b602091828204019190066101000a81548160ff021916908360ff1602179055505b5060015b95945050505050565b601b8301546301000000900460ff161561196357505050565b601883015460ff16158061198157506018830154610100900460ff16155b806119915750601983015460ff16155b1561199b57505050565b60038301546119b790601885019062010000900460ff16612763565b60038401805464ff000000001916600160201b60ff9384168102919091179182905590041660151480156119f95750600383015460ff62010000909104166002145b601b84018054911515620100000263ff0000ff191663ffff00ff19909216919091176301000000179055601883015460198401546040805160ff808516825261010090940484166020820152929091168282015260608201839052516001600160a01b038416917f6ab98f64c965ca9cc31074a860efdd4d392827a3c30d6dd1a1625eba8c20a492919081900360800190a2505050565b601b8401805460ff19169055611aa684836123fc565b611ac457611abf84846000015160018660400151612477565b611bbe565b8184601801846040015160ff16600a8110611ae157611ae161305a565b602091828204019190066101000a81548160ff021916908360ff1602179055506000611b21856018018660030160029054906101000a900460ff16612763565b60038601805464ff000000001916600160201b60ff8481169182029290921790925586516040808901518151898516815293166020840152820192909252606081018590529192506001600160a01b0316907f6f19257eea0c3058d30497286827daa6c147ed8be1a906b7d233e4751121ed559060800160405180910390a260158160ff161115611bbc57611bbc8585600001516003612875565b505b50505050565b8184601901846040015160ff16600a8110611be157611be161305a565b602091828204019190066101000a81548160ff021916908360ff160217905550826040015160ff16600103611c2257601b8401805461ff0019166101001790555b6000611c42856019018660030160039054906101000a900460ff16612763565b60038601805460ff83811665010000000000810265ff00000000001990931692909217909255601b8801805460ff1916905586516040808901518151898616815294166020850152830191909152606082018590529192506001600160a01b03909116907f29a1610b470c6053f82e60c7f4fd1c9073f2475d9b739c6b61bc36c27d22b53c9060800160405180910390a260118160ff16108015611cf557506003850154600a630100000090910460ff16105b15611edc5760038501546301000000900460ff16600080611d146117d6565b88516001600160a01b031660009081526008602052604090209193509150829060ff8516600a8110611d4857611d4861305a565b602091828204019190066101000a81548160ff021916908360ff1602179055508088600e018460ff16600a8110611d8157611d8161305a565b0155611d8e836001613219565b8860030160036101000a81548160ff021916908360ff1602179055506000611db4611879565b601a8a01819055601b8a01805491925060039160ff19166001830217905550604080516080810190915288516001600160a01b03168152602081016003815260ff8616602080830191909152600060409283018190528481526002825291909120825181546001600160a01b039091166001600160a01b031982168117835592840151919283916001600160a81b03191617600160a01b836004811115611e5d57611e5d6130c1565b0217905550604082810151825460609094015161ffff60a81b19909416600160a81b60ff9283160260ff60b01b191617600160b01b9482169490940293909317909155805191851660208301520160408051601f19818403018152918152600083815260066020522090611ed19082613159565b505050505050611bbe565b600060158260ff161115611ef257506002611f39565b600386015460ff600160201b909104811690831603611f1357506004611f39565b600386015460ff600160201b90910481169083161015611f3557506002611f39565b5060035b610ab086866000015183612875565b606083015160ff16600114611f5d85846123fc565b611f7b57611f75858560000151838760400151612477565b50611bbe565b8015611fc3578285601801856040015160ff16600a8110611f9e57611f9e61305a565b602091828204019190066101000a81548160ff021916908360ff160217905550612021565b8285601901856040015160ff16600a8110611fe057611fe061305a565b602091828204019190066101000a81548160ff021916908360ff160217905550836040015160ff1660010361202157601b8501805461ff0019166101001790555b601b8501805460ff1916908190556301000000900460ff1661204c57611f758585600001518461194a565b8015612114576000612072866018018760030160029054906101000a900460ff16612763565b60038701805464ff000000001916600160201b60ff8481169182029290921790925587516040808a015181518a8516815293166020840152820192909252606081018690529192506001600160a01b0316907f6f19257eea0c3058d30497286827daa6c147ed8be1a906b7d233e4751121ed559060800160405180910390a260158160ff16111561210d5761210d8686600001516003612875565b5050611bbe565b6000612134866019018760030160039054906101000a900460ff16612763565b60038701805465ff000000000019166501000000000060ff8481169182029290921790925587516040808a015181518a8516815293166020840152820192909252606081018690529192506001600160a01b0316907f29a1610b470c6053f82e60c7f4fd1c9073f2475d9b739c6b61bc36c27d22b53c9060800160405180910390a260118160ff161080156121d857506003860154600a630100000090910460ff16105b156123875760038601546301000000900460ff1660006121f66129e9565b90508088600e018360ff16600a81106122115761221161305a565b015561221e826001613219565b60038901805460ff9290921663010000000263ff000000199092169190911790556040805160018082528183019092526000916020808301908036833701905050905081816000815181106122755761227561305a565b602090810291909101015260006122938263c1be757160e01b612a34565b601a8b01819055601b8b01805491925060039160ff19166001830217905550604080516080810190915289516001600160a01b03168152602081016003815260ff8616602080830191909152600060409283018190528481526002825291909120825181546001600160a01b039091166001600160a01b031982168117835592840151919283916001600160a81b03191617600160a01b83600481111561233c5761233c6130c1565b02179055506040820151815460609093015161ffff60a81b19909316600160a81b60ff9283160260ff60b01b191617600160b01b919093160291909117905550611bbe945050505050565b600060158260ff16111561239d575060026123e4565b600387015460ff600160201b9091048116908316036123be575060046123e4565b600387015460ff600160201b909104811690831610156123e0575060026123e4565b5060035b6123f387876000015183612875565b50505050505050565b600060ff82161580612411575060348260ff16115b1561243457604051636a974d6b60e11b815260ff831660048201526024016103c8565b60006124416001846132cd565b60ff166001901b90508084601c015416600014612462576000915050612471565b601c8401805490911790555060015b92915050565b6000806124826117d6565b915091508315612534576001600160a01b0385166000908152600760205260409020829060ff8516600a81106124ba576124ba61305a565b602091828204019190066101000a81548160ff021916908360ff16021790555080866004018460ff16600a81106124f3576124f361305a565b015560006018870160ff8516600a811061250f5761250f61305a565b602091828204019190066101000a81548160ff021916908360ff1602179055506125d8565b6001600160a01b0385166000908152600860205260409020829060ff8516600a81106125625761256261305a565b602091828204019190066101000a81548160ff021916908360ff1602179055508086600e018460ff16600a811061259b5761259b61305a565b015560006019870160ff8516600a81106125b7576125b761305a565b602091828204019190066101000a81548160ff021916908360ff1602179055505b60006125e2611879565b601a8801819055601b8801805460ff19166004908117909155604080516080810182526001600160a01b038a168152602081019290925260ff8716908201529091506060810186612634576002612637565b60015b60ff1690526000828152600260209081526040909120825181546001600160a01b039091166001600160a01b031982168117835592840151919283916001600160a81b03191617600160a01b836004811115612695576126956130c1565b0217905550604082810151825460609094015161ffff60a81b19909416600160a81b60ff9283160260ff60b01b191617600160b01b9482169490940293909317909155805191851660208301520160408051601f198184030181529181526000838152600660205220906127099082613159565b5060408051861515815260ff861660208201529081018290526001600160a01b038716907f1dd35d4f13c337a7ee1a5a7fa4cd693c2b3bfd0585d78fdcaf2a07a376f922249060600160405180910390a250505050505050565b60008080805b8460ff168160ff16101561281e576000868260ff16600a811061278e5761278e61305a565b602081049091015460ff601f9092166101000a900416905060008190036127b55750612816565b60006127c082612a42565b90508060ff166001036127ed57836127d7816132e6565b94506127e69050600b86613305565b9450612813565b600a8160ff1610612803576127e6600a86613305565b61281060ff821686613305565b94505b50505b600101612769565b505b60158261ffff16118015612837575060008160ff16115b1561285b57612847600a83613327565b91508061285381613342565b915050612820565b60ff8261ffff16111561286d5760ff91505b509392505050565b6003830154610100900460ff1661288b57505050565b8254600060ff8316600203612906576128a582600261335f565b601b86015490915062010000900460ff16156128d3576128c660028361338c565b6128d09082613232565b90505b6001600160a01b038416600090815260016020526040812080548392906128fb908490613232565b909155506129429050565b8260ff1660040361294257506001600160a01b03831660009081526001602052604081208054839283929161293c908490613232565b90915550505b60018501805460ff85811660ff19928316811790935560038801805461ff001916908190556000808a55601b8a018054909416909355601a8901929092556040805193845260208401859052600160201b830482168482015265010000000000909204166060830152516001600160a01b038616917f28b7d393112cca8f1c7daa79b22d76c79a8863aa4fac90c579c535ade916161e919081900360800190a25050505050565b60405162461bcd60e51b815260206004820152601b60248201527f4861726e657373206f766572726964657320647261772070617468000000000060448201526000906064016103c8565b600061106a83836000612a9f565b600060ff82161580612a57575060348260ff16115b15612a7a57604051636a974d6b60e11b815260ff831660048201526024016103c8565b6000612a876001846132cd565b9050612a94600d826133a0565b61106a906001613219565b7f878245876662ba28a480c5ea71726db859fb50222b0a3d7cbbc21cfa336faf0080547f9e7b61f58c47dc699ac88507c4f5bb9f121c03808c5676a8078fe583e46497008054604051637d6e912360e11b81529293926001600160a01b039091169063fadd224690612b159089906004016133fe565b600060405180830381600087803b158015612b2f57600080fd5b505af1158015612b43573d6000803e3d6000fd5b5050506002820154604051633263b83b60e01b81526001600160a01b039091169150633263b83b908690612b7f9087908b908b90600401613411565b6000604051808303818588803b158015612b9857600080fd5b505af1158015612bac573d6000803e3d6000fd5b5050505050612bbb8387612bd7565b8154826000612bc983613443565b919050555050509392505050565b60008281527f878245876662ba28a480c5ea71726db859fb50222b0a3d7cbbc21cfa336faf0160205260409020547f878245876662ba28a480c5ea71726db859fb50222b0a3d7cbbc21cfa336faf009015612c4557604051633f06d22b60e01b815260040160405180910390fd5b600083815260018201602090815260409091208351611bbe92850190612ce6565b50805460008255601f016020900490600052602060002090810190612c8b9190612d31565b50565b60405180608001604052806004906020820280368337509192915050565b508054612cb8906130d7565b6000825580601f10612cc8575050565b601f016020900490600052602060002090810190612c8b9190612d31565b828054828255906000526020600020908101928215612d21579160200282015b82811115612d21578251825591602001919060010190612d06565b50612d2d929150612d31565b5090565b5b80821115612d2d5760008155600101612d32565b634e487b7160e01b600052604160045260246000fd5b604051601f8201601f1916810167ffffffffffffffff81118282101715612d8557612d85612d46565b604052919050565b60ff81168114612c8b57600080fd5b60006020808385031215612daf57600080fd5b823567ffffffffffffffff80821115612dc757600080fd5b818501915085601f830112612ddb57600080fd5b813581811115612ded57612ded612d46565b8060051b9150612dfe848301612d5c565b8181529183018401918481019088841115612e1857600080fd5b938501935b83851015612e425784359250612e3283612d8d565b8282529385019390850190612e1d565b98975050505050505050565b60008060008060608587031215612e6457600080fd5b8435935060208501359250604085013567ffffffffffffffff80821115612e8a57600080fd5b818701915087601f830112612e9e57600080fd5b813581811115612ead57600080fd5b886020828501011115612ebf57600080fd5b95989497505060200194505050565b600060208284031215612ee057600080fd5b5035919050565b600082601f830112612ef857600080fd5b813567ffffffffffffffff811115612f1257612f12612d46565b612f25601f8201601f1916602001612d5c565b818152846020838601011115612f3a57600080fd5b816020850160208301376000918101602001919091529392505050565b600080600060608486031215612f6c57600080fd5b83359250602084013567ffffffffffffffff80821115612f8b57600080fd5b612f9787838801612ee7565b93506040860135915080821115612fad57600080fd5b50612fba86828701612ee7565b9150509250925092565b60006020808352835180602085015260005b81811015612ff257858101830151858201604001528201612fd6565b506000604082860101526040601f19601f8301168501019250505092915050565b6020808252825182820181905260009190848201906040850190845b8181101561304e57835160ff168352928401929184019160010161302f565b50909695505050505050565b634e487b7160e01b600052603260045260246000fd5b6020808252600e908201526d52657665616c2070656e64696e6760901b604082015260600190565b634e487b7160e01b600052601160045260246000fd5b8181038181111561247157612471613098565b634e487b7160e01b600052602160045260246000fd5b600181811c908216806130eb57607f821691505b60208210810361310b57634e487b7160e01b600052602260045260246000fd5b50919050565b601f821115611211576000816000526020600020601f850160051c8101602086101561313a5750805b601f850160051c820191505b81811015610ab057828155600101613146565b815167ffffffffffffffff81111561317357613173612d46565b6131878161318184546130d7565b84613111565b602080601f8311600181146131bc57600084156131a45750858301515b600019600386901b1c1916600185901b178555610ab0565b600085815260208120601f198616915b828110156131eb578886015182559484019460019091019084016131cc565b50858210156132095787850151600019600388901b60f8161c191681555b5050505050600190811b01905550565b60ff818116838216019081111561247157612471613098565b8082018082111561247157612471613098565b6000806000806080858703121561325b57600080fd5b845161326681612d8d565b602086015190945061327781612d8d565b604086015190935061328881612d8d565b60608601519092506001600160801b03811681146132a557600080fd5b939692955090935050565b6000602082840312156132c257600080fd5b815161106a81612d8d565b60ff828116828216039081111561247157612471613098565b600060ff821660ff81036132fc576132fc613098565b60010192915050565b61ffff81811683821601908082111561332057613320613098565b5092915050565b61ffff82811682821603908082111561332057613320613098565b600060ff82168061335557613355613098565b6000190192915050565b808202811582820484141761247157612471613098565b634e487b7160e01b600052601260045260246000fd5b60008261339b5761339b613376565b500490565b600060ff8316806133b3576133b3613376565b8060ff84160691505092915050565b60008151808452602080850194506020840160005b838110156133f3578151875295820195908201906001016133d7565b509495945050505050565b60208152600061106a60208301846133c2565b83815260606020820152600061342a60608301856133c2565b905063ffffffff60e01b83166040830152949350505050565b60006001820161345557613455613098565b506001019056fea26469706673582212200138fff3f94f627051aa12043b3b0ca2ad5b26795a7ad4467ec0533c8f28a36a64736f6c63430008180033",
  "linkReferences": {},
  "deployedLinkReferences": {}
}