{
  "_format": "hh-sol-artifact-1",
  "contractName": "FHEBlackjackTest",
  "sourceName": "contracts/FHEBlackjackTest.sol",
  "abi": [
    {
      "inputs": [],
      "stateMutability": "nonpayable",
      "type": "constructor"
    },
    {
      "anonymous": false,
      "inputs": [
        {
          "indexed": true,
          "internalType": "address",
          "name": "player",
          "type": "address"
        },
        {
          "indexed": false,
          "internalType": "bool",
          "name": "isPlayer",
          "type": "bool"
        },
        {
          "indexed": false,
          "internalType": "uint8",
          "name": "card",
          "type": "uint8"
        }
      ],
      "name": "CardDealt",
      "type": "event"
    },
    {
      "anonymous": false,
      "inputs": [
        {
          "indexed": true,
          "internalType": "address",
          "name": "player",
          "type": "address"
        },
        {
          "indexed": false,
          "internalType": "uint256",
          "name": "amount",
          "type": "uint256"
        }
      ],
      "name": "Deposit",
      "type": "event"
    },
    {
      "anonymous": false,
      "inputs": [
        {
          "indexed": true,
          "internalType": "address",
          "name": "player",
          "type": "address"
        },
        {
          "indexed": false,
          "internalType": "uint8",
          "name": "result",
          "type": "uint8"
        }
      ],
      "name": "GameEnded",
      "type": "event"
    },
    {
      "anonymous": false,
      "inputs": [
        {
          "indexed": true,
          "internalType": "address",
          "name": "player",
          "type": "address"
        }
      ],
      "name": "GameForceReset",
      "type": "event"
    },
    {
      "anonymous": false,
      "inputs": [
        {
          "indexed": true,
          "internalType": "address",
          "name": "player",
          "type": "address"
        },
        {
          "indexed": false,
          "internalType": "uint256",
          "name": "betAmount",
          "type": "uint256"
        }
      ],
      "name": "GameStarted",
      "type": "event"
    },
    {
      "inputs": [
        {
          "internalType": "address",
          "name": "",
          "type": "address"
        }
      ],
      "name": "balances",
      "outputs": [
        {
          "internalType": "uint256",
          "name": "",
          "type": "uint256"
        }
      ],
      "stateMutability": "view",
      "type": "function"
    },
    {
      "inputs": [],
      "name": "deposit",
      "outputs": [],
      "stateMutability": "payable",
      "type": "function"
    },
    {
      "inputs": [],
      "name": "forceReset",
      "outputs": [],
      "stateMutability": "nonpayable",
      "type": "function"
    },
    {
      "inputs": [
        {
          "internalType": "address",
          "name": "",
          "type": "address"
        }
      ],
      "name": "games",
      "outputs": [
        {
          "internalType": "uint256",
          "name": "betAmount",
          "type": "uint256"
        },
        {
          "internalType": "uint8",
          "name": "playerCardCount",
          "type": "uint8"
        },
        {
          "internalType": "uint8",
          "name": "dealerCardCount",
          "type": "uint8"
        },
        {
          "internalType": "uint8",
          "name": "gameState",
          "type": "uint8"
        },
        {
          "internalType": "bool",
          "name": "isActive",
          "type": "bool"
        },
        {
          "internalType": "uint8",
          "name": "playerScore",
          "type": "uint8"
        },
        {
          "internalType": "uint8",
          "name": "dealerScore",
          "type": "uint8"
        }
      ],
      "stateMutability": "view",
      "type": "function"
    },
    {
      "inputs": [],
      "name": "getBalance",
      "outputs": [
        {
          "internalType": "uint256",
          "name": "",
          "type": "uint256"
        }
      ],
      "stateMutability": "view",
      "type": "function"
    },
    {
      "inputs": [],
      "name": "getDealerCards",
      "outputs": [
        {
          "internalType": "uint8[]",
          "name": "cards",
          "type": "uint8[]"
        },
        {
          "internalType": "uint8",
          "name": "count",
          "type": "uint8"
        },
        {
          "internalType": "uint8",
          "name": "score",
          "type": "uint8"
        }
      ],
      "stateMutability": "view",
      "type": "function"
    },
    {
      "inputs": [],
      "name": "getGameDetails",
      "outputs": [
        {
          "internalType": "bool",
          "name": "isActive",
          "type": "bool"
        },
        {
          "internalType": "uint8",
          "name": "state",
          "type": "uint8"
        },
        {
          "internalType": "uint8",
          "name": "playerScore",
          "type": "uint8"
        },
        {
          "internalType": "uint8",
          "name": "dealerScore",
          "type": "uint8"
        },
        {
          "internalType": "uint8",
          "name": "playerCardCount",
          "type": "uint8"
        },
        {
          "internalType": "uint8",
          "name": "dealerCardCount",
          "type": "uint8"
        }
      ],
      "stateMutability": "view",
      "type": "function"
    },
    {
      "inputs": [],
      "name": "getGameState",
      "outputs": [
        {
          "internalType": "bool",
          "name": "isActive",
          "type": "bool"
        },
        {
          "internalType": "uint8",
          "name": "state",
          "type": "uint8"
        }
      ],
      "stateMutability": "view",
      "type": "function"
    },
    {
      "inputs": [],
      "name": "getPlayerCards",
      "outputs": [
        {
          "internalType": "uint8[]",
          "name": "cards",
          "type": "uint8[]"
        },
        {
          "internalType": "uint8",
          "name": "count",
          "type": "uint8"
        },
        {
          "internalType": "uint8",
          "name": "score",
          "type": "uint8"
        }
      ],
      "stateMutability": "view",
      "type": "function"
    },
    {
      "inputs": [],
      "name": "hit",
      "outputs": [],
      "stateMutability": "nonpayable",
      "type": "function"
    },
    {
      "inputs": [],
      "name": "owner",
      "outputs": [
        {
          "internalType": "address",
          "name": "",
          "type": "address"
        }
      ],
      "stateMutability": "view",
      "type": "function"
    },
    {
      "inputs": [],
      "name": "stand",
      "outputs": [],
      "stateMutability": "nonpayable",
      "type": "function"
    },
    {
      "inputs": [
        {
          "internalType": "uint256",
          "name": "betAmount",
          "type": "uint256"
        }
      ],
      "name": "startGameTest",
      "outputs": [],
      "stateMutability": "nonpayable",
      "type": "function"
    },
    {
      "inputs": [],
      "name": "withdrawOwner",
      "outputs": [],
      "stateMutability": "nonpayable",
      "type": "function"
    }
  ],
  "bytecode": "0x608060405234801561001057600080fd5b50600280546001600160a01b0319163317905542600355611839806100366000396000f3fe6080604052600436106100dd5760003560e01c80638da5cb5b1161007f578063c2897b1011610059578063c2897b1014610309578063d0e30db01461031e578063e8cc00ad14610326578063feb308131461033b57600080fd5b80638da5cb5b1461027f578063974ee4d8146102b7578063b7d0628b146102db57600080fd5b806350fc2c61116100bb57806350fc2c6114610157578063720bc4d0146101a657806379131a19146101c65780638b680cc31461026a57600080fd5b806312065fe0146100e257806327e235e3146101135780632ae3594a14610140575b600080fd5b3480156100ee57600080fd5b50336000908152600160205260409020545b6040519081526020015b60405180910390f35b34801561011f57600080fd5b5061010061012e3660046115fe565b60016020526000908152604090205481565b34801561014c57600080fd5b50610155610350565b005b34801561016357600080fd5b5061016c61042c565b60408051961515875260ff9586166020880152938516938601939093529083166060850152821660808401521660a082015260c00161010a565b3480156101b257600080fd5b506101556101c136600461162e565b61058f565b3480156101d257600080fd5b5061022b6101e13660046115fe565b600060208190529081526040902080546001820154600490920154909160ff8082169261010080840483169362010000810484169363010000009091048116928082169290041687565b6040805197885260ff968716602089015294861694870194909452918416606086015215156080850152821660a08401521660c082015260e00161010a565b34801561027657600080fd5b5061015561074c565b34801561028b57600080fd5b5060025461029f906001600160a01b031681565b6040516001600160a01b03909116815260200161010a565b3480156102c357600080fd5b506102cc610810565b60405161010a93929190611647565b3480156102e757600080fd5b506102f0610a03565b60408051921515835260ff90911660208301520161010a565b34801561031557600080fd5b50610155610b3b565b610155610cdb565b34801561033257600080fd5b50610155610d7f565b34801561034757600080fd5b506102cc610e01565b336000908152602081905260409020600101546301000000900460ff166103925760405162461bcd60e51b8152600401610389906116a5565b60405180910390fd5b33600090815260208190526040902060019081015462010000900460ff16146103f45760405162461bcd60e51b815260206004820152601460248201527347616d65206e6f7420696e2070726f677265737360601b6044820152606401610389565b6103ff336001610ff9565b33600090815260208190526040902060040154601560ff909116111561042a5761042a3360036113e2565b565b3360009081526020818152604080832081516101208101835281548152600182015460ff808216958301959095526101008104851682850152620100008104851660608301526301000000900490931615156080840152815161014081019283905284938493849384938493849390929160a08401916002840190600a908288855b825461010083900a900460ff168152602060019283018181049485019490930390920291018084116104ae5750505092845250506040805161014081019182905260209093019291506003840190600a90826000855b825461010083900a900460ff16815260206001928301818104948501949093039092029101808411610504575050509284525050506004919091015460ff808216602080850191909152610100928390049091166040938401526080840151606085015160e086015193860151928601519590940151909c939b509199509750919550909350915050565b336000908152602081905260409020600101546301000000900460ff16156105f95760405162461bcd60e51b815260206004820152601860248201527f47616d6520616c726561647920696e2070726f677265737300000000000000006044820152606401610389565b3360009081526001602052604090205481111561064f5760405162461bcd60e51b8152602060048201526014602482015273496e73756666696369656e742062616c616e636560601b6044820152606401610389565b336000908152600160205260408120805483929061066e9084906116e3565b90915550503360008181526020819052604090208281556001808201805463ffffffff1916630101000017905560048201805461ffff1916905590916106b391610ff9565b6106be336000610ff9565b6106c9336001610ff9565b6106d4336000610ff9565b600481015460ff16601503610712576004810154610100900460ff16601503610707576107023360046113e2565b610712565b6107123360026113e2565b60405182815233907fea32a03505fd9f04d664676d72295a86c5fb0465e69654751907ca305bc1d1c7906020015b60405180910390a25050565b33600090815260208190526040902060018101546301000000900460ff166107865760405162461bcd60e51b8152600401610389906116a5565b805433600090815260016020526040812080549091906107a79084906116f6565b90915550503360008181526020819052604080822082815560018101805463ffffffff191690556002810183905560038101839055600401805461ffff19169055517fb342df6340575ad323b23d37d755a3e123cb7b7c48ecc6aede917b7f2bb804e99190a250565b3360009081526020818152604080832081516101208101835281548152600182015460ff80821695830195909552610100810485168285015262010000810485166060808401919091526301000000909104909416151560808201528251610140810193849052939493849384939160a08401916002840190600a908288855b825461010083900a900460ff168152602060019283018181049485019490930390920291018084116108905750505092845250506040805161014081019182905260209093019291506003840190600a90826000855b825461010083900a900460ff168152602060019283018181049485019490930390920291018084116108e6575050509284525050506004919091015460ff80821660208401526101009091048116604092830152908201519192506000911667ffffffffffffffff81111561095d5761095d611709565b604051908082528060200260200182016040528015610986578160200160208202803683370190505b50905060005b826040015160ff168160ff1610156109eb578260c001518160ff16600a81106109b7576109b761171f565b6020020151828260ff16815181106109d1576109d161171f565b60ff9092166020928302919091019091015260010161098c565b50604082015161010090920151909591945092509050565b3360009081526020818152604080832081516101208101835281548152600182015460ff80821695830195909552610100810485168285015262010000810485166060830152630100000090049093161515608084015281516101408101928390528493849390929160a08401916002840190600a908288855b825461010083900a900460ff16815260206001928301818104948501949093039092029101808411610a7d5750505092845250506040805161014081019182905260209093019291506003840190600a90826000855b825461010083900a900460ff16815260206001928301818104948501949093039092029101808411610ad3575050509284525050506004919091015460ff80821660208401526101009091041660409091015260808101516060909101519094909350915050565b336000908152602081905260409020600101546301000000900460ff16610b745760405162461bcd60e51b8152600401610389906116a5565b33600090815260208190526040902060019081015462010000900460ff1614610bd65760405162461bcd60e51b815260206004820152601460248201527347616d65206e6f7420696e2070726f677265737360601b6044820152606401610389565b3360009081526020819052604090205b6004810154601161010090910460ff161015610c0c57610c07336000610ff9565b610be6565b6004810154600090601561010090910460ff161115610c5f57508054600290610c359082611735565b3360009081526001602052604081208054909190610c549084906116f6565b90915550610ccd9050565b600482015460ff6101008204811691161115610c8557508054600290610c359082611735565b600482015460ff6101008204811691161015610ca357506003610ccd565b50805433600090815260016020526040812080546004939290610cc79084906116f6565b90915550505b610cd733826113e2565b5050565b60003411610d245760405162461bcd60e51b81526020600482015260166024820152754d757374206465706f73697420736f6d657468696e6760501b6044820152606401610389565b3360009081526001602052604081208054349290610d439084906116f6565b909155505060405134815233907fe1fffcc4923d04b559f4d29a8bfc6cda04eb5b0d3c460751c2402c5c5cc9109c9060200160405180910390a2565b6002546001600160a01b03163314610dc55760405162461bcd60e51b81526020600482015260096024820152682737ba1037bbb732b960b91b6044820152606401610389565b6002546040516001600160a01b03909116904780156108fc02916000818181858888f19350505050158015610dfe573d6000803e3d6000fd5b50565b3360009081526020818152604080832081516101208101835281548152600182015460ff80821695830195909552610100810485168285015262010000810485166060808401919091526301000000909104909416151560808201528251610140810193849052939493849384939160a08401916002840190600a908288855b825461010083900a900460ff16815260206001928301818104948501949093039092029101808411610e815750505092845250506040805161014081019182905260209093019291506003840190600a90826000855b825461010083900a900460ff16815260206001928301818104948501949093039092029101808411610ed7575050509284525050506004919091015460ff80821660208085019190915261010090920481166040909301929092528201519192506000911667ffffffffffffffff811115610f5457610f54611709565b604051908082528060200260200182016040528015610f7d578160200160208202803683370190505b50905060005b826020015160ff168160ff161015610fe2578260a001518160ff16600a8110610fae57610fae61171f565b6020020151828260ff1681518110610fc857610fc861171f565b60ff90921660209283029190910190910152600101610f83565b50602082015160e090920151909591945092509050565b6001600160a01b0382166000908152602081905260408120600354909190429044904390339087611036576001870154610100900460ff1661103f565b600187015460ff165b604080516020810197909752860194909452606080860193909352911b6bffffffffffffffffffffffff19166080840152609483015260f81b6001600160f81b03191660b482015260b5016040516020818303038152906040528051906020012060001c9050806003546001436110b691906116e3565b60408051602081019490945283019190915240606082015260800160408051601f19818403018152919052805160209091012060035560006110f9600d83611762565b6111049060016116f6565b90508315611244576001830154600a60ff909116106111545760405162461bcd60e51b815260206004820152600c60248201526b12185b99081a5cc8199d5b1b60a21b6044820152606401610389565b60018301548190600285019060ff16600a81106111735761117361171f565b60208104909101805460ff938416601f9093166101000a92830292840219169190911790556001840180549091169060006111ad83611776565b825460ff9182166101009390930a92830291909202199091161790555060408051610140810191829052611229916002860190600a90826000855b825461010083900a900460ff168152602060019283018181049485019490930390920291018084116111e85750505050600187015460ff1691506115189050565b60048401805460ff191660ff92909216919091179055611393565b6001830154600a61010090910460ff16106112905760405162461bcd60e51b815260206004820152600c60248201526b12185b99081a5cc8199d5b1b60a21b6044820152606401610389565b600183015481906003850190610100900460ff16600a81106112b4576112b461171f565b602091828204019190066101000a81548160ff021916908360ff16021790555082600101600181819054906101000a900460ff16809291906112f590611776565b825460ff9182166101009390930a92830291909202199091161790555060408051610140810191829052611376916003860190600a90826000855b825461010083900a900460ff1681526020600192830181810494850194909303909202910180841161133057505050506001870154610100900460ff1691506115189050565b8360040160016101000a81548160ff021916908360ff1602179055505b60408051851515815260ff831660208201526001600160a01b038716917f258a04e63d27c92b7b1043ffccb40c23f5b93bfe8502aedcf7d8d42bba3fda62910160405180910390a25050505050565b6001600160a01b0382166000908152602081905260409020600101805463ffff000019166201000060ff841690810263ff000000191691909117909155600214801561144c57506001600160a01b03821660009081526020819052604090206004015460ff166015145b801561147657506001600160a01b03821660009081526020819052604090206001015460ff166002145b156114da576001600160a01b0382166000908152602081905260409020546002906114a2906003611735565b6114ac9190611795565b6001600160a01b038316600090815260016020526040812080549091906114d49084906116f6565b90915550505b60405160ff821681526001600160a01b038316907fecdab0d30ae5a2b8d283acf9ed4856306f12f29ef8069fac9148d3d2ac6b4b1490602001610740565b60008080805b8460ff168160ff1610156115a5576000868260ff16600a81106115435761154361171f565b602002015190508060ff16600103611575578261155f81611776565b935061156e9050600b856117a9565b935061159c565b600a8160ff16111561158c5761156e600a856117a9565b61159960ff8216856117a9565b93505b5060010161151e565b505b60158261ffff161180156115be575060008160ff16115b156115e2576115ce600a836117cb565b9150806115da816117e6565b9150506115a7565b60ff8261ffff1611156115f45760ff91505b5090505b92915050565b60006020828403121561161057600080fd5b81356001600160a01b038116811461162757600080fd5b9392505050565b60006020828403121561164057600080fd5b5035919050565b606080825284519082018190526000906020906080840190828801845b8281101561168357815160ff1684529284019290840190600101611664565b505050809250505060ff8416602083015260ff83166040830152949350505050565b6020808252600e908201526d4e6f206163746976652067616d6560901b604082015260600190565b634e487b7160e01b600052601160045260246000fd5b818103818111156115f8576115f86116cd565b808201808211156115f8576115f86116cd565b634e487b7160e01b600052604160045260246000fd5b634e487b7160e01b600052603260045260246000fd5b80820281158282048414176115f8576115f86116cd565b634e487b7160e01b600052601260045260246000fd5b6000826117715761177161174c565b500690565b600060ff821660ff810361178c5761178c6116cd565b60010192915050565b6000826117a4576117a461174c565b500490565b61ffff8181168382160190808211156117c4576117c46116cd565b5092915050565b61ffff8281168282160390808211156117c4576117c46116cd565b600060ff8216806117f9576117f96116cd565b600019019291505056fea2646970667358221220c9785e75928a5e98465a08f159510791ee10da47e4c697482a586c3fdb9692c064736f6c63430008180033",
  "linkReferences": {},
  "deployedLinkReferences": {}
}