{
  "_format": "hh-sol-artifact-1",
  "contractName": "FHEBlackjackBatch",
  "sourceName": "contracts/FHEBlackjackBatch.sol",
  "abi": [
    {
      "inputs": [
        {
          "internalType": "address",
          "name": "player",
          "type": "address"
        }
      ],
      "name": "GameInProgress",
      "type": "error"
    },
    {
      "inputs": [],
      "name": "HandlesAlreadySavedForRequestID",
      "type": "error"
    },
    {
      "inputs": [],
      "name": "InvalidKMSSignatures",
      "type": "error"
    },
    {
      "inputs": [
        {
          "internalType": "uint8",
          "name": "requested",
          "type": "uint8"
        }
      ],
      "name": "InvalidPlayerCardCount",
      "type": "error"
    },
    {
      "inputs": [
        {
          "internalType": "uint256",
          "name": "requestId",
          "type": "uint256"
        }
      ],
      "name": "InvalidReveal",
      "type": "error"
    },
    {
      "inputs": [
        {
          "internalType": "address",
          "name": "player",
          "type": "address"
        }
      ],
      "name": "NoActiveGame",
      "type": "error"
    },
    {
      "inputs": [],
      "name": "NoHandleFoundForRequestID",
      "type": "error"
    },
    {
      "inputs": [
        {
          "internalType": "address",
          "name": "player",
          "type": "address"
        }
      ],
      "name": "SettlementNotReady",
      "type": "error"
    },
    {
      "inputs": [
        {
          "internalType": "address",
          "name": "player",
          "type": "address"
        }
      ],
      "name": "SettlementPending",
      "type": "error"
    },
    {
      "inputs": [
        {
          "internalType": "address",
          "name": "player",
          "type": "address"
        }
      ],
      "name": "TooManyCards",
      "type": "error"
    },
    {
      "anonymous": false,
      "inputs": [
        {
          "indexed": true,
          "internalType": "address",
          "name": "player",
          "type": "address"
        },
        {
          "indexed": false,
          "internalType": "uint256",
          "name": "betAmount",
          "type": "uint256"
        },
        {
          "indexed": false,
          "internalType": "bytes32",
          "name": "deckDigest",
          "type": "bytes32"
        }
      ],
      "name": "BatchGameStarted",
      "type": "event"
    },
    {
      "anonymous": false,
      "inputs": [
        {
          "indexed": true,
          "internalType": "address",
          "name": "player",
          "type": "address"
        },
        {
          "indexed": false,
          "internalType": "bytes32",
          "name": "handle",
          "type": "bytes32"
        }
      ],
      "name": "DealerUpCardPrepared",
      "type": "event"
    },
    {
      "anonymous": false,
      "inputs": [
        {
          "indexed": true,
          "internalType": "uint256",
          "name": "requestID",
          "type": "uint256"
        }
      ],
      "name": "DecryptionFulfilled",
      "type": "event"
    },
    {
      "anonymous": false,
      "inputs": [
        {
          "indexed": true,
          "internalType": "address",
          "name": "player",
          "type": "address"
        },
        {
          "indexed": false,
          "internalType": "uint256",
          "name": "amount",
          "type": "uint256"
        }
      ],
      "name": "Deposit",
      "type": "event"
    },
    {
      "anonymous": false,
      "inputs": [
        {
          "indexed": true,
          "internalType": "address",
          "name": "player",
          "type": "address"
        },
        {
          "indexed": false,
          "internalType": "uint8",
          "name": "totalCards",
          "type": "uint8"
        }
      ],
      "name": "GameStanding",
      "type": "event"
    },
    {
      "anonymous": false,
      "inputs": [
        {
          "indexed": true,
          "internalType": "address",
          "name": "player",
          "type": "address"
        },
        {
          "indexed": false,
          "internalType": "uint8",
          "name": "slot",
          "type": "uint8"
        },
        {
          "indexed": false,
          "internalType": "bytes32",
          "name": "handle",
          "type": "bytes32"
        },
        {
          "indexed": false,
          "internalType": "uint8",
          "name": "totalCards",
          "type": "uint8"
        }
      ],
      "name": "PlayerCardConsumed",
      "type": "event"
    },
    {
      "anonymous": false,
      "inputs": [
        {
          "indexed": true,
          "internalType": "address",
          "name": "player",
          "type": "address"
        },
        {
          "indexed": false,
          "internalType": "uint8",
          "name": "slot",
          "type": "uint8"
        },
        {
          "indexed": false,
          "internalType": "bytes32",
          "name": "handle",
          "type": "bytes32"
        },
        {
          "indexed": false,
          "internalType": "uint8",
          "name": "totalCards",
          "type": "uint8"
        }
      ],
      "name": "PlayerCardPrepared",
      "type": "event"
    },
    {
      "anonymous": false,
      "inputs": [
        {
          "indexed": true,
          "internalType": "address",
          "name": "player",
          "type": "address"
        },
        {
          "indexed": false,
          "internalType": "uint8",
          "name": "result",
          "type": "uint8"
        },
        {
          "indexed": false,
          "internalType": "uint256",
          "name": "payout",
          "type": "uint256"
        },
        {
          "indexed": false,
          "internalType": "uint8",
          "name": "playerScore",
          "type": "uint8"
        },
        {
          "indexed": false,
          "internalType": "uint8",
          "name": "dealerScore",
          "type": "uint8"
        }
      ],
      "name": "RoundSettled",
      "type": "event"
    },
    {
      "anonymous": false,
      "inputs": [
        {
          "indexed": true,
          "internalType": "address",
          "name": "player",
          "type": "address"
        },
        {
          "indexed": false,
          "internalType": "string",
          "name": "reason",
          "type": "string"
        }
      ],
      "name": "SettlementFailed",
      "type": "event"
    },
    {
      "anonymous": false,
      "inputs": [
        {
          "indexed": true,
          "internalType": "address",
          "name": "player",
          "type": "address"
        },
        {
          "indexed": false,
          "internalType": "uint256",
          "name": "requestId",
          "type": "uint256"
        },
        {
          "indexed": false,
          "internalType": "uint8",
          "name": "playerCardCount",
          "type": "uint8"
        }
      ],
      "name": "SettlementRequested",
      "type": "event"
    },
    {
      "anonymous": false,
      "inputs": [
        {
          "indexed": true,
          "internalType": "address",
          "name": "player",
          "type": "address"
        },
        {
          "indexed": false,
          "internalType": "uint256",
          "name": "amount",
          "type": "uint256"
        }
      ],
      "name": "Withdrawal",
      "type": "event"
    },
    {
      "inputs": [],
      "name": "deposit",
      "outputs": [],
      "stateMutability": "payable",
      "type": "function"
    },
    {
      "inputs": [],
      "name": "forceReset",
      "outputs": [],
      "stateMutability": "nonpayable",
      "type": "function"
    },
    {
      "inputs": [],
      "name": "getBalance",
      "outputs": [
        {
          "internalType": "uint256",
          "name": "",
          "type": "uint256"
        }
      ],
      "stateMutability": "view",
      "type": "function"
    },
    {
      "inputs": [],
      "name": "getGameState",
      "outputs": [
        {
          "internalType": "enum FHEBlackjackBatch.GamePhase",
          "name": "phase",
          "type": "uint8"
        },
        {
          "internalType": "uint8",
          "name": "playerCardCount",
          "type": "uint8"
        },
        {
          "internalType": "uint8",
          "name": "nextPlayerSlot",
          "type": "uint8"
        },
        {
          "internalType": "uint256",
          "name": "pendingRequestId",
          "type": "uint256"
        },
        {
          "internalType": "bytes32",
          "name": "actionDigest",
          "type": "bytes32"
        },
        {
          "internalType": "uint64",
          "name": "settleAvailableAt",
          "type": "uint64"
        }
      ],
      "stateMutability": "view",
      "type": "function"
    },
    {
      "inputs": [],
      "name": "getPreparedHandles",
      "outputs": [
        {
          "internalType": "bytes32[10]",
          "name": "playerHandles",
          "type": "bytes32[10]"
        },
        {
          "internalType": "bytes32[10]",
          "name": "dealerHandles",
          "type": "bytes32[10]"
        },
        {
          "internalType": "bytes32",
          "name": "deckDigest",
          "type": "bytes32"
        }
      ],
      "stateMutability": "view",
      "type": "function"
    },
    {
      "inputs": [],
      "name": "hit",
      "outputs": [],
      "stateMutability": "nonpayable",
      "type": "function"
    },
    {
      "inputs": [
        {
          "internalType": "uint256",
          "name": "requestId",
          "type": "uint256"
        },
        {
          "internalType": "bytes",
          "name": "cleartexts",
          "type": "bytes"
        },
        {
          "internalType": "bytes",
          "name": "decryptionProof",
          "type": "bytes"
        }
      ],
      "name": "onSettlementReveal",
      "outputs": [
        {
          "internalType": "bool",
          "name": "",
          "type": "bool"
        }
      ],
      "stateMutability": "nonpayable",
      "type": "function"
    },
    {
      "inputs": [],
      "name": "protocolId",
      "outputs": [
        {
          "internalType": "uint256",
          "name": "",
          "type": "uint256"
        }
      ],
      "stateMutability": "pure",
      "type": "function"
    },
    {
      "inputs": [
        {
          "internalType": "uint8",
          "name": "playerCardCountDeclared",
          "type": "uint8"
        }
      ],
      "name": "settleRound",
      "outputs": [],
      "stateMutability": "nonpayable",
      "type": "function"
    },
    {
      "inputs": [],
      "name": "stand",
      "outputs": [],
      "stateMutability": "nonpayable",
      "type": "function"
    },
    {
      "inputs": [
        {
          "internalType": "uint256",
          "name": "betAmountWei",
          "type": "uint256"
        },
        {
          "internalType": "externalEuint128",
          "name": "encryptedBetAmount",
          "type": "bytes32"
        },
        {
          "internalType": "bytes",
          "name": "inputProof",
          "type": "bytes"
        }
      ],
      "name": "startGame",
      "outputs": [],
      "stateMutability": "nonpayable",
      "type": "function"
    },
    {
      "inputs": [
        {
          "internalType": "uint256",
          "name": "amount",
          "type": "uint256"
        }
      ],
      "name": "withdraw",
      "outputs": [],
      "stateMutability": "nonpayable",
      "type": "function"
    }
  ],
  "bytecode": "0x608060405234801561001057600080fd5b5061018c6100b0604080516080810182526000808252602082018190529181018290526060810191909152506040805160808101825273687820221192c5b662b25367f70076a37bc79b6c815273848b0066793bcc60346da1f49049357399b8d595602082015273a02cda4ca3a71d7c46997716f4283aa851c2881291810191909152731364cbbf2cdf5032c47d8226a6f6fbd2afcdacac606082015290565b80517f9e7b61f58c47dc699ac88507c4f5bb9f121c03808c5676a8078fe583e464970080546001600160a01b03199081166001600160a01b039384161790915560208301517f9e7b61f58c47dc699ac88507c4f5bb9f121c03808c5676a8078fe583e46497018054831691841691909117905560408301517f9e7b61f58c47dc699ac88507c4f5bb9f121c03808c5676a8078fe583e46497028054831691841691909117905560608301517f9e7b61f58c47dc699ac88507c4f5bb9f121c03808c5676a8078fe583e46497038054909216921691909117905550565b6125488061019b6000396000f3fe6080604052600436106100a75760003560e01c80638b680cc3116100645780638b680cc314610188578063b7d0628b1461019d578063c2897b1014610206578063d0e30db01461021b578063da1f12ab14610223578063dd72d4f51461023857600080fd5b806312065fe0146100ac57806318c838b2146100dd5780632ae3594a146100ff5780632e1a7d4d146101145780633c43bb4e1461013457806389ba2a1114610158575b600080fd5b3480156100b857600080fd5b50336000908152600260205260409020545b6040519081526020015b60405180910390f35b3480156100e957600080fd5b506100fd6100f8366004611e5a565b610258565b005b34801561010b57600080fd5b506100fd610547565b34801561012057600080fd5b506100fd61012f366004611eda565b6106fd565b34801561014057600080fd5b50610149610823565b6040516100d493929190611f16565b34801561016457600080fd5b50610178610173366004611fe5565b6108bf565b60405190151581526020016100d4565b34801561019457600080fd5b506100fd610a59565b3480156101a957600080fd5b50336000908152602081905260409081902060018101546002820154600483015460039093015493516100d49460ff80851695610100808704831696620100009004909216949390929190910467ffffffffffffffff1690612068565b34801561021257600080fd5b506100fd610b59565b6100fd610c62565b34801561022f57600080fd5b506127116100ca565b34801561024457600080fd5b506100fd6102533660046120c6565b610d0b565b3360009081526020819052604090206005810154610100900460ff161561029957604051631331ddf160e01b81523360048201526024015b60405180910390fd5b336000908152600260205260409020548511806102b4575084155b156102f85760405162461bcd60e51b8152602060048201526014602482015273496e73756666696369656e742062616c616e636560601b6044820152606401610290565b33600090815260026020526040812080548792906103179084906120f9565b9091555050336000908152600160205260409020610336908290610fc0565b8481556001808201805460058401805461ff00191661010017905562ffffff19166202020117905561036b906000904361106a565b6004820155336000908152600160209081526040918290208251601f8601839004830281018301909352848352916103c6916103c391889188908890819084018382808284376000920191909152506110a092505050565b90565b81556103d281336110b7565b60058201805460ff191660019081179091556103f590820160005b0154336111b0565b6104036001808301906103ed565b610411600b820160006103ed565b601581015460405133917f1e3c3124faf4b00a73eea5f81e779b6291bf7fd0bd6e2851f7ba899505e11c9d9161044f918a8252602082015260400190565b60405180910390a2600181810154908301546040805160008152602081019390935261010090910460ff169082015233907fe7e12943775457509466e5b2576d01484c69941a74aa4b07e7a9c4a014eb9f4d9060600160405180910390a2600281015460018381015460408051928352602083019390935260ff6101009091041681830152905133917fe7e12943775457509466e5b2576d01484c69941a74aa4b07e7a9c4a014eb9f4d919081900360600190a2337fd2161e318bf3d5781baae9bf028637efa3166befc6e9166751d97fb723f45f86600b8301600001546040519081526020015b60405180910390a2505050505050565b3360008181526020819052604090206005810154610100900460ff161580610587575060018082015460ff16600381111561058457610584612052565b14155b156105b05760405163ced5326f60e01b81526001600160a01b0383166004820152602401610290565b33600090815260208181526040808320600192839052922090820154600a6201000090910460ff16106105f85760405163787ecaa360e11b8152336004820152602401610290565b60018281015460009183019062010000900460ff16600a811061061d5761061d61210c565b0154905061062b81336111b0565b600183810180548290610647908290610100900460ff16612122565b82546101009290920a60ff8181021990931691831602179091556001858101805462010000900490921692509060026106808385612122565b92506101000a81548160ff021916908360ff1602179055506106a8846004015460024361106a565b600485015560018401546040805160ff8085168252602082018690526101009093049092169082015233907f95f99649a9448c3ba83fe45125fbb67d760b09ecf57c21e71861c49b12b1de6990606001610537565b600081116107425760405162461bcd60e51b81526020600482015260126024820152710416d6f756e74206d757374206265203e20360741b6044820152606401610290565b336000908152600260205260409020548111156107985760405162461bcd60e51b8152602060048201526014602482015273496e73756666696369656e742062616c616e636560601b6044820152606401610290565b33600090815260026020526040812080548392906107b79084906120f9565b9091555050604051339082156108fc029083906000818181858888f193505050501580156107e9573d6000803e3d6000fd5b5060405181815233907f7fcf532c15f0a6db0bd6d0e038bea71d30d808c7d98cb3bf7268a95bf5081b65906020015b60405180910390a250565b61082b611ddb565b610833611ddb565b336000908152600160208190526040808320601581015482516101408101938490529193840192600b850192908490600a9082845b81548152602001906001019080831161086857505060408051610140810191829052949750869350600a9250905082845b815481526020019060010190808311610899575050505050915093509350935050909192565b6000838152600360205260408120546001600160a01b0316806108f857604051634574ee2760e01b815260048101869052602401610290565b6001600160a01b03811660009081526020819052604090206002810154861461093757604051634574ee2760e01b815260048101879052602401610290565b6109428686866111be565b6000808680602001905181019061095991906121b2565b91509150600061097a838560010160019054906101000a900460ff1661122a565b9050600061098783611322565b5090506000610996838361142f565b905060006109a98883896000015461148e565b6001600160a01b03891660009081526001602052604090209091506109cf908890610fc0565b60008c81526003602090815260409182902080546001600160a01b0319169055815160ff858116825291810184905286821681840152908516606082015290516001600160a01b038a16917f28b7d393112cca8f1c7daa79b22d76c79a8863aa4fac90c579c535ade916161e919081900360800190a26001985050505050505050505b9392505050565b3360009081526020819052604090206005810154610100900460ff16610a945760405163ced5326f60e01b8152336004820152602401610290565b600281015415610ab9576040516302ac0eb960e41b8152336004820152602401610290565b80543360009081526002602052604081208054909190610ada9084906121e9565b9091555050600480820154610aef914361106a565b6004820155336000908152600160205260409020610b0e908290610fc0565b8054604080516004815260208101929092526000908201819052606082015233907f28b7d393112cca8f1c7daa79b22d76c79a8863aa4fac90c579c535ade916161e90608001610818565b3360008181526020819052604090206005810154610100900460ff161580610b99575060018082015460ff166003811115610b9657610b96612052565b14155b15610bc25760405163ced5326f60e01b81526001600160a01b0383166004820152602401610290565b33600090815260208190526040902060018101805460ff191660021790556003808201805467ffffffffffffffff42166101000268ffffffffffffffff00199091161790556004820154610c16914361106a565b6004820155600181015460405161010090910460ff16815233907f104a761736f0a5beca0baf3dd3b162bb777fa5e478468281fce26a749bc265349060200160405180910390a2505050565b60003411610cab5760405162461bcd60e51b81526020600482015260166024820152754d757374206465706f73697420736f6d657468696e6760501b6044820152606401610290565b3360009081526002602052604081208054349290610cca9084906121e9565b909155505060405134815233907fe1fffcc4923d04b559f4d29a8bfc6cda04eb5b0d3c460751c2402c5c5cc9109c9060200160405180910390a2565b905090565b3360009081526020819052604090206005810154610100900460ff16610d465760405163ced5326f60e01b8152336004820152602401610290565b60018082015460ff166003811115610d6057610d60612052565b14158015610d8757506002600182015460ff166003811115610d8457610d84612052565b14155b15610da75760405163151094a760e31b8152336004820152602401610290565b600281015415610dcc576040516302ac0eb960e41b8152336004820152602401610290565b60028260ff161080610de15750600a8260ff16115b15610e045760405163bd366ca560e01b815260ff83166004820152602401610290565b6001818101805462ffff00191661010060ff861690810262ff000019169190911762010000919091021780825560039260ff199091169083021790555033600090815260016020526040812090610e5c600a806121e9565b67ffffffffffffffff811115610e7457610e74611f42565b604051908082528060200260200182016040528015610e9d578160200160208202803683370190505b50905060005b600a811015610ee8578260010181600a8110610ec157610ec161210c565b0154828281518110610ed557610ed561210c565b6020908102919091010152600101610ea3565b5060005b600a811015610f3b5782600b0181600a8110610f0a57610f0a61210c565b015482610f1883600a6121e9565b81518110610f2857610f2861210c565b6020908102919091010152600101610eec565b506000610f4f826389ba2a1160e01b611522565b6002850181905560008181526003602090815260409182902080546001600160a01b03191633908117909155825184815260ff8a16928101929092529293507ff45b5d1354b051f7e8f7fa24c2b925a455a6eb6a27ce63032a838f87f7c31057910160405180910390a25050505050565b600080835560018301805462ffffff191690556002830181905560038301805468ffffffffffffffffff191690556004830181905560058301805461ffff19169055808255601582018190555b600a8110156110375760006001830182600a811061102d5761102d61210c565b015560010161100d565b5060005b600a811015611065576000600b830182600a811061105b5761105b61210c565b015560010161103b565b505050565b6000838383604051602001611081939291906121fc565b6040516020818303038152906040528051906020012090509392505050565b60006110ae83836006611530565b90505b92915050565b60005b600a8110156111335760006110cd611647565b9050808460010183600a81106110e5576110e561210c565b01556015840154604051611103919083906000908690602001612237565b60408051601f198184030181529190528051602090910120601585015561112a8184611680565b506001016110ba565b5060005b600a81101561106557600061114a611647565b90508084600b0183600a81106111625761116261210c565b01556015840154604051611180919083906001908690602001612237565b60408051601f19818403018152919052805160209091012060158501556111a78184611680565b50600101611137565b6111ba8282611680565b5050565b60006111c984611694565b905060006111d8828585611769565b9050806111f85760405163cf6c44e960e01b815260040160405180910390fd5b60405185907f1af0453083661051f6e56e5c070792320652e612154bf9af8637bb1e7655b99d90600090a25050505050565b60008080805b8460ff16811080156112425750600a81105b156112cb5760006112688783600a811061125e5761125e61210c565b6020020151611849565b90508060ff1660010361129457611280600184612122565b925061128d600b85612266565b93506112ba565b600a8160ff16106112aa5761128d600a85612266565b6112b760ff821685612266565b93505b506112c481612288565b9050611230565b505b60158261ffff161180156112e4575060008160ff16115b15611308576112f4600a836122a1565b91506113016001826122bc565b90506112cd565b60ff8261ffff16111561131a5760ff91505b509392505050565b600080808080805b600a81101561141057600061134a8883600a811061125e5761125e61210c565b90508060ff1660000361135d5750611410565b6113688260016121e9565b92508060ff1660010361139457611380600185612122565b935061138d600b86612266565b94506113ba565b600a8160ff16106113aa5761138d600a86612266565b6113b760ff821686612266565b94505b60158561ffff161180156113d1575060008460ff16115b156113f5576113e1600a866122a1565b94506113ee6001856122bc565b93506113ba565b60118561ffff16106114075750611410565b5060010161132a565b5060ff8361ffff1611156114235760ff92505b91959194509092505050565b600060158360ff161115611445575060036110b1565b60158260ff161115611459575060026110b1565b8160ff168360ff16111561146f575060026110b1565b8160ff168360ff161015611485575060036110b1565b50600492915050565b600060011960ff8416016114df576114a78260026122d5565b6001600160a01b0385166000908152600260205260408120805492935083929091906114d49084906121e9565b90915550610a529050565b60031960ff841601610a5257506001600160a01b0383166000908152600260205260408120805483928392916115169084906121e9565b90915550509392505050565b60006110ae83836000611883565b7f9e7b61f58c47dc699ac88507c4f5bb9f121c03808c5676a8078fe583e46497015460405163196d0b9b60e01b81526000916000805160206124f3833981519152916001600160a01b039091169063196d0b9b90611598908890339089908990600401612350565b6020604051808303816000875af11580156115b7573d6000803e3d6000fd5b505050506040513d601f19601f820116820180604052508101906115db9190612389565b8154604051630f8e573b60e21b8152600481018390523360248201529193506001600160a01b031690633e395cec90604401600060405180830381600087803b15801561162757600080fd5b505af115801561163b573d6000803e3d6000fd5b50505050509392505050565b6000806116526119a9565b905060006116618260346119b5565b905060006116788261167360016119d6565b6119e6565b949350505050565b61168a8282611a18565b6111ba8230611a18565b60008181527f878245876662ba28a480c5ea71726db859fb50222b0a3d7cbbc21cfa336faf0160205260408120546060917f878245876662ba28a480c5ea71726db859fb50222b0a3d7cbbc21cfa336faf009190036117065760405163d66ca67560e01b815260040160405180910390fd5b60008381526001820160209081526040918290208054835181840281018401909452808452909183018282801561175c57602002820191906000526020600020905b815481526020019060010190808311611748575b5050505050915050919050565b6000808351602061177a91906121e9565b6117859060206121e9565b90506000848260405160200161179c9291906123a2565b604051602081830303815290604052905060006117c46000805160206124f383398151915290565b60038101546040516378542ead60e01b81529192506001600160a01b0316906378542ead906117fb908a9086908a90600401612400565b6020604051808303816000875af115801561181a573d6000803e3d6000fd5b505050506040513d601f19601f8201168201806040525081019061183e9190612439565b979650505050505050565b60008160ff1660000361185e57506000919050565b600061186b6001846122bc565b9050611878600d8261245b565b610a52906001612122565b7f878245876662ba28a480c5ea71726db859fb50222b0a3d7cbbc21cfa336faf0080546000805160206124f38339815191528054604051637d6e912360e11b81529293926001600160a01b039091169063fadd2246906118e790899060040161248b565b600060405180830381600087803b15801561190157600080fd5b505af1158015611915573d6000803e3d6000fd5b5050506002820154604051633263b83b60e01b81526001600160a01b039091169150633263b83b9086906119519087908b908b9060040161249e565b6000604051808303818588803b15801561196a57600080fd5b505af115801561197e573d6000803e3d6000fd5b505050505061198d8387611a95565b815482600061199b83612288565b919050555050509392505050565b6000610d066002611b2a565b6000826119c9576119c660006119d6565b92505b6110ae8360ff8416611bcf565b60006110b18260ff166002611c78565b6000826119fa576119f760006119d6565b92505b81611a0c57611a0960006119d6565b91505b6110ae83836000611d1f565b60006000805160206124f38339815191528054604051635ca4b5b160e11b8152600481018690526001600160a01b03858116602483015292935091169063b9496b6290604401600060405180830381600087803b158015611a7857600080fd5b505af1158015611a8c573d6000803e3d6000fd5b50505050505050565b60008281527f878245876662ba28a480c5ea71726db859fb50222b0a3d7cbbc21cfa336faf0160205260409020547f878245876662ba28a480c5ea71726db859fb50222b0a3d7cbbc21cfa336faf009015611b0357604051633f06d22b60e01b815260040160405180910390fd5b600083815260018201602090815260409091208351611b2492850190611dfa565b50505050565b7f9e7b61f58c47dc699ac88507c4f5bb9f121c03808c5676a8078fe583e464970154604051636baeb74560e11b81526000916000805160206124f3833981519152916001600160a01b039091169063d75d6e8a90611b8c9086906004016124d0565b6020604051808303816000875af1158015611bab573d6000803e3d6000fd5b505050506040513d601f19601f82011682018060405250810190610a529190612389565b6000600160f81b816000805160206124f383398151915260018101546040516367a68c5560e11b815260048101889052602481018790526001600160f81b0319851660448201529192506001600160a01b03169063cf4d18aa906064016020604051808303816000875af1158015611c4b573d6000803e3d6000fd5b505050506040513d601f19601f82011682018060405250810190611c6f9190612389565b95945050505050565b7f9e7b61f58c47dc699ac88507c4f5bb9f121c03808c5676a8078fe583e464970154604051639cd07acb60e01b81526000916000805160206124f3833981519152916001600160a01b0390911690639cd07acb90611cdc90879087906004016124de565b6020604051808303816000875af1158015611cfb573d6000803e3d6000fd5b505050506040513d601f19601f820116820180604052508101906116789190612389565b6000808215611d335750600160f81b611d37565b5060005b60006000805160206124f3833981519152600181015460405163022f65e760e31b815260048101899052602481018890526001600160f81b0319851660448201529192506001600160a01b03169063117b2f38906064016020604051808303816000875af1158015611dad573d6000803e3d6000fd5b505050506040513d601f19601f82011682018060405250810190611dd19190612389565b9695505050505050565b604051806101400160405280600a906020820280368337509192915050565b828054828255906000526020600020908101928215611e35579160200282015b82811115611e35578251825591602001919060010190611e1a565b50611e41929150611e45565b5090565b5b80821115611e415760008155600101611e46565b60008060008060608587031215611e7057600080fd5b8435935060208501359250604085013567ffffffffffffffff80821115611e9657600080fd5b818701915087601f830112611eaa57600080fd5b813581811115611eb957600080fd5b886020828501011115611ecb57600080fd5b95989497505060200194505050565b600060208284031215611eec57600080fd5b5035919050565b8060005b600a811015611b24578151845260209384019390910190600101611ef7565b6102a08101611f258286611ef3565b611f33610140830185611ef3565b82610280830152949350505050565b634e487b7160e01b600052604160045260246000fd5b600082601f830112611f6957600080fd5b813567ffffffffffffffff80821115611f8457611f84611f42565b604051601f8301601f19908116603f01168101908282118183101715611fac57611fac611f42565b81604052838152866020858801011115611fc557600080fd5b836020870160208301376000602085830101528094505050505092915050565b600080600060608486031215611ffa57600080fd5b83359250602084013567ffffffffffffffff8082111561201957600080fd5b61202587838801611f58565b9350604086013591508082111561203b57600080fd5b5061204886828701611f58565b9150509250925092565b634e487b7160e01b600052602160045260246000fd5b60c081016004881061207c5761207c612052565b96815260ff95861660208201529390941660408401526060830191909152608082015267ffffffffffffffff90911660a09091015290565b60ff811681146120c357600080fd5b50565b6000602082840312156120d857600080fd5b8135610a52816120b4565b634e487b7160e01b600052601160045260246000fd5b818103818111156110b1576110b16120e3565b634e487b7160e01b600052603260045260246000fd5b60ff81811683821601908111156110b1576110b16120e3565b600082601f83011261214c57600080fd5b60405161014080820182811067ffffffffffffffff8211171561217157612171611f42565b6040528301818582111561218457600080fd5b845b828110156121a7578051612199816120b4565b825260209182019101612186565b509195945050505050565b60008061028083850312156121c657600080fd5b6121d0848461213b565b91506121e084610140850161213b565b90509250929050565b808201808211156110b1576110b16120e3565b83815260006005841061221157612211612052565b5060f89290921b602083015260c01b6001600160c01b0319166021820152602901919050565b93845260208401929092526001600160f81b031960f891821b8116604085015291901b16604182015260420190565b61ffff818116838216019080821115612281576122816120e3565b5092915050565b60006001820161229a5761229a6120e3565b5060010190565b61ffff828116828216039080821115612281576122816120e3565b60ff82811682821603908111156110b1576110b16120e3565b80820281158282048414176110b1576110b16120e3565b60005b838110156123075781810151838201526020016122ef565b50506000910152565b600081518084526123288160208601602086016122ec565b601f01601f19169290920160200192915050565b6054811061234c5761234c612052565b9052565b8481526001600160a01b038416602082015260806040820181905260009061237a90830185612310565b9050611c6f606083018461233c565b60006020828403121561239b57600080fd5b5051919050565b600083516123b48184602088016122ec565b9190910191825250602001919050565b60008151808452602080850194506020840160005b838110156123f5578151875295820195908201906001016123d9565b509495945050505050565b60608152600061241360608301866123c4565b82810360208401526124258186612310565b90508281036040840152611dd18185612310565b60006020828403121561244b57600080fd5b81518015158114610a5257600080fd5b600060ff83168061247c57634e487b7160e01b600052601260045260246000fd5b8060ff84160691505092915050565b6020815260006110ae60208301846123c4565b8381526060602082015260006124b760608301856123c4565b905063ffffffff60e01b83166040830152949350505050565b602081016110b1828461233c565b82815260408101610a52602083018461233c56fe9e7b61f58c47dc699ac88507c4f5bb9f121c03808c5676a8078fe583e4649700a26469706673582212205167017d3a9455eea172962400cadc0e2cbfbdf6dfd8b27603bf0e94693a5d0e64736f6c63430008180033",
  "linkReferences": {},
  "deployedLinkReferences": {}
}