{
  "_format": "hh-sol-artifact-1",
  "contractName": "FHEBlackjackGateway",
  "sourceName": "contracts/FHEBlackjackGateway.sol",
  "abi": [
    {
      "inputs": [
        {
          "internalType": "uint8",
          "name": "value",
          "type": "uint8"
        }
      ],
      "name": "CardOutOfRange",
      "type": "error"
    },
    {
      "inputs": [
        {
          "internalType": "address",
          "name": "player",
          "type": "address"
        }
      ],
      "name": "GameInProgress",
      "type": "error"
    },
    {
      "inputs": [],
      "name": "HandlesAlreadySavedForRequestID",
      "type": "error"
    },
    {
      "inputs": [],
      "name": "InvalidKMSSignatures",
      "type": "error"
    },
    {
      "inputs": [
        {
          "internalType": "uint256",
          "name": "requestId",
          "type": "uint256"
        }
      ],
      "name": "InvalidReveal",
      "type": "error"
    },
    {
      "inputs": [
        {
          "internalType": "address",
          "name": "player",
          "type": "address"
        }
      ],
      "name": "NoActiveGame",
      "type": "error"
    },
    {
      "inputs": [],
      "name": "NoHandleFoundForRequestID",
      "type": "error"
    },
    {
      "inputs": [
        {
          "internalType": "uint256",
          "name": "requestId",
          "type": "uint256"
        }
      ],
      "name": "RevealPending",
      "type": "error"
    },
    {
      "inputs": [
        {
          "internalType": "uint8",
          "name": "action",
          "type": "uint8"
        }
      ],
      "name": "UnsupportedRevealAction",
      "type": "error"
    },
    {
      "anonymous": false,
      "inputs": [
        {
          "indexed": true,
          "internalType": "address",
          "name": "player",
          "type": "address"
        },
        {
          "indexed": false,
          "internalType": "uint8",
          "name": "cardValue",
          "type": "uint8"
        },
        {
          "indexed": false,
          "internalType": "uint8",
          "name": "cardIndex",
          "type": "uint8"
        },
        {
          "indexed": false,
          "internalType": "uint8",
          "name": "newScore",
          "type": "uint8"
        },
        {
          "indexed": false,
          "internalType": "uint256",
          "name": "requestId",
          "type": "uint256"
        }
      ],
      "name": "DealerCardRevealed",
      "type": "event"
    },
    {
      "anonymous": false,
      "inputs": [
        {
          "indexed": true,
          "internalType": "uint256",
          "name": "requestID",
          "type": "uint256"
        }
      ],
      "name": "DecryptionFulfilled",
      "type": "event"
    },
    {
      "anonymous": false,
      "inputs": [
        {
          "indexed": true,
          "internalType": "address",
          "name": "player",
          "type": "address"
        },
        {
          "indexed": false,
          "internalType": "uint256",
          "name": "amount",
          "type": "uint256"
        }
      ],
      "name": "Deposit",
      "type": "event"
    },
    {
      "anonymous": false,
      "inputs": [
        {
          "indexed": true,
          "internalType": "address",
          "name": "player",
          "type": "address"
        },
        {
          "indexed": false,
          "internalType": "bool",
          "name": "isPlayerHand",
          "type": "bool"
        },
        {
          "indexed": false,
          "internalType": "uint8",
          "name": "cardIndex",
          "type": "uint8"
        },
        {
          "indexed": false,
          "internalType": "uint256",
          "name": "requestId",
          "type": "uint256"
        }
      ],
      "name": "DuplicateCardResampled",
      "type": "event"
    },
    {
      "anonymous": false,
      "inputs": [
        {
          "indexed": true,
          "internalType": "address",
          "name": "player",
          "type": "address"
        }
      ],
      "name": "ForceReset",
      "type": "event"
    },
    {
      "anonymous": false,
      "inputs": [
        {
          "indexed": true,
          "internalType": "address",
          "name": "player",
          "type": "address"
        },
        {
          "indexed": false,
          "internalType": "uint256",
          "name": "betAmount",
          "type": "uint256"
        },
        {
          "indexed": false,
          "internalType": "uint256",
          "name": "requestId",
          "type": "uint256"
        }
      ],
      "name": "GameStarted",
      "type": "event"
    },
    {
      "anonymous": false,
      "inputs": [
        {
          "indexed": true,
          "internalType": "address",
          "name": "player",
          "type": "address"
        },
        {
          "indexed": false,
          "internalType": "uint8",
          "name": "playerCardOne",
          "type": "uint8"
        },
        {
          "indexed": false,
          "internalType": "uint8",
          "name": "playerCardTwo",
          "type": "uint8"
        },
        {
          "indexed": false,
          "internalType": "uint8",
          "name": "dealerUpCard",
          "type": "uint8"
        },
        {
          "indexed": false,
          "internalType": "uint256",
          "name": "requestId",
          "type": "uint256"
        }
      ],
      "name": "InitialHandRevealed",
      "type": "event"
    },
    {
      "anonymous": false,
      "inputs": [
        {
          "indexed": true,
          "internalType": "address",
          "name": "player",
          "type": "address"
        },
        {
          "indexed": false,
          "internalType": "uint256",
          "name": "claimedAmount",
          "type": "uint256"
        },
        {
          "indexed": false,
          "internalType": "uint256",
          "name": "revealedAmount",
          "type": "uint256"
        }
      ],
      "name": "InvalidBetReveal",
      "type": "event"
    },
    {
      "anonymous": false,
      "inputs": [
        {
          "indexed": true,
          "internalType": "address",
          "name": "player",
          "type": "address"
        },
        {
          "indexed": false,
          "internalType": "uint8",
          "name": "cardValue",
          "type": "uint8"
        },
        {
          "indexed": false,
          "internalType": "uint8",
          "name": "cardIndex",
          "type": "uint8"
        },
        {
          "indexed": false,
          "internalType": "uint8",
          "name": "newScore",
          "type": "uint8"
        },
        {
          "indexed": false,
          "internalType": "uint256",
          "name": "requestId",
          "type": "uint256"
        }
      ],
      "name": "PlayerCardRevealed",
      "type": "event"
    },
    {
      "anonymous": false,
      "inputs": [
        {
          "indexed": true,
          "internalType": "address",
          "name": "player",
          "type": "address"
        },
        {
          "indexed": false,
          "internalType": "uint8",
          "name": "result",
          "type": "uint8"
        },
        {
          "indexed": false,
          "internalType": "uint256",
          "name": "payout",
          "type": "uint256"
        },
        {
          "indexed": false,
          "internalType": "uint8",
          "name": "playerScore",
          "type": "uint8"
        },
        {
          "indexed": false,
          "internalType": "uint8",
          "name": "dealerScore",
          "type": "uint8"
        }
      ],
      "name": "RoundSettled",
      "type": "event"
    },
    {
      "anonymous": false,
      "inputs": [
        {
          "indexed": true,
          "internalType": "address",
          "name": "player",
          "type": "address"
        },
        {
          "indexed": false,
          "internalType": "uint256",
          "name": "amount",
          "type": "uint256"
        }
      ],
      "name": "Withdrawal",
      "type": "event"
    },
    {
      "inputs": [],
      "name": "deposit",
      "outputs": [],
      "stateMutability": "payable",
      "type": "function"
    },
    {
      "inputs": [],
      "name": "forceReset",
      "outputs": [],
      "stateMutability": "nonpayable",
      "type": "function"
    },
    {
      "inputs": [],
      "name": "getBalance",
      "outputs": [
        {
          "internalType": "uint256",
          "name": "",
          "type": "uint256"
        }
      ],
      "stateMutability": "view",
      "type": "function"
    },
    {
      "inputs": [],
      "name": "getDealerVisibleCards",
      "outputs": [
        {
          "internalType": "uint8[]",
          "name": "cards",
          "type": "uint8[]"
        }
      ],
      "stateMutability": "view",
      "type": "function"
    },
    {
      "inputs": [],
      "name": "getGameState",
      "outputs": [
        {
          "internalType": "bool",
          "name": "isActive",
          "type": "bool"
        },
        {
          "internalType": "uint8",
          "name": "state",
          "type": "uint8"
        },
        {
          "internalType": "uint8",
          "name": "playerScore",
          "type": "uint8"
        },
        {
          "internalType": "uint8",
          "name": "dealerUpCard",
          "type": "uint8"
        },
        {
          "internalType": "uint8",
          "name": "playerCardCount",
          "type": "uint8"
        },
        {
          "internalType": "uint8",
          "name": "dealerCardCount",
          "type": "uint8"
        },
        {
          "internalType": "uint256",
          "name": "pendingRequestId",
          "type": "uint256"
        }
      ],
      "stateMutability": "view",
      "type": "function"
    },
    {
      "inputs": [],
      "name": "getPlayerCards",
      "outputs": [
        {
          "internalType": "uint8[]",
          "name": "cards",
          "type": "uint8[]"
        }
      ],
      "stateMutability": "view",
      "type": "function"
    },
    {
      "inputs": [],
      "name": "hit",
      "outputs": [],
      "stateMutability": "nonpayable",
      "type": "function"
    },
    {
      "inputs": [
        {
          "internalType": "uint256",
          "name": "requestId",
          "type": "uint256"
        },
        {
          "internalType": "bytes",
          "name": "cleartexts",
          "type": "bytes"
        },
        {
          "internalType": "bytes",
          "name": "decryptionProof",
          "type": "bytes"
        }
      ],
      "name": "onReveal",
      "outputs": [
        {
          "internalType": "bool",
          "name": "",
          "type": "bool"
        }
      ],
      "stateMutability": "nonpayable",
      "type": "function"
    },
    {
      "inputs": [],
      "name": "protocolId",
      "outputs": [
        {
          "internalType": "uint256",
          "name": "",
          "type": "uint256"
        }
      ],
      "stateMutability": "pure",
      "type": "function"
    },
    {
      "inputs": [],
      "name": "stand",
      "outputs": [],
      "stateMutability": "nonpayable",
      "type": "function"
    },
    {
      "inputs": [
        {
          "internalType": "uint256",
          "name": "betAmountWei",
          "type": "uint256"
        },
        {
          "internalType": "externalEuint128",
          "name": "encryptedBetAmount",
          "type": "bytes32"
        },
        {
          "internalType": "bytes",
          "name": "inputProof",
          "type": "bytes"
        }
      ],
      "name": "startGame",
      "outputs": [],
      "stateMutability": "nonpayable",
      "type": "function"
    },
    {
      "inputs": [
        {
          "internalType": "uint256",
          "name": "amount",
          "type": "uint256"
        }
      ],
      "name": "withdraw",
      "outputs": [],
      "stateMutability": "nonpayable",
      "type": "function"
    }
  ],
  "bytecode": "0x608060405234801561001057600080fd5b5061018c6100b0604080516080810182526000808252602082018190529181018290526060810191909152506040805160808101825273687820221192c5b662b25367f70076a37bc79b6c815273848b0066793bcc60346da1f49049357399b8d595602082015273a02cda4ca3a71d7c46997716f4283aa851c2881291810191909152731364cbbf2cdf5032c47d8226a6f6fbd2afcdacac606082015290565b80517f9e7b61f58c47dc699ac88507c4f5bb9f121c03808c5676a8078fe583e464970080546001600160a01b03199081166001600160a01b039384161790915560208301517f9e7b61f58c47dc699ac88507c4f5bb9f121c03808c5676a8078fe583e46497018054831691841691909117905560408301517f9e7b61f58c47dc699ac88507c4f5bb9f121c03808c5676a8078fe583e46497028054831691841691909117905560608301517f9e7b61f58c47dc699ac88507c4f5bb9f121c03808c5676a8078fe583e46497038054909216921691909117905550565b6133ea806200019c6000396000f3fe6080604052600436106100a75760003560e01c8063c1be757111610064578063c1be7571146101d7578063c2897b1014610207578063d0e30db01461021c578063da1f12ab14610224578063f473752314610239578063feb308131461025b57600080fd5b806312065fe0146100ac57806318c838b2146100dd5780632ae3594a146100ff5780632e1a7d4d146101145780638b680cc314610134578063b7d0628b14610149575b600080fd5b3480156100b857600080fd5b50336000908152600160205260409020545b6040519081526020015b60405180910390f35b3480156100e957600080fd5b506100fd6100f8366004612d9e565b610270565b005b34801561010b57600080fd5b506100fd61064e565b34801561012057600080fd5b506100fd61012f366004612e1e565b610881565b34801561014057600080fd5b506100fd6109a6565b34801561015557600080fd5b503360009081526020818152604091829020600381015460018201546019830154601a90930154855160ff610100850481161515825292831695810195909552600160201b8304821695850195909552918216606084015262010000810482166080840152630100000090041660a082015260c081019190915260e0016100d4565b3480156101e357600080fd5b506101f76101f2366004612eda565b610a6b565b60405190151581526020016100d4565b34801561021357600080fd5b506100fd610e19565b6100fd610fb5565b34801561023057600080fd5b506127116100ca565b34801561024557600080fd5b5061024e61105e565b6040516100d49190612f47565b34801561026757600080fd5b5061024e611183565b3360009081526020819052604090206003810154610100900460ff16156102b157604051631331ddf160e01b81523360048201526024015b60405180910390fd5b601a810154156102dc5780601a015460405163f3c8229d60e01b81526004016102a891815260200190565b6000851161031e5760405162461bcd60e51b815260206004820152600f60248201526e0426574206d757374206265203e203608c1b60448201526064016102a8565b336000908152600160205260409020548511156103745760405162461bcd60e51b8152602060048201526014602482015273496e73756666696369656e742062616c616e636560601b60448201526064016102a8565b3360009081526001602052604081208054879290610393908490612fa4565b909155506103a2905081611266565b8481556003810180546001808401805460ff1916909117905565ffffffffffff1916610100179055604080516020601f850181900481028201810190925283815260009161040c91879187908790819084018382808284376000920191909152506113d092505050565b9050806002830155600061041e6113e7565b9050600061042a6113e7565b905060006104366113e7565b905060006104426113e7565b600487810186905560058801859055600e8801849055600f880182905560038801805463ffff0000191663020200001790556040805182815260a08101909152919250600091906020820160808036833701905050905084816000815181106104ad576104ad612fb7565b60200260200101818152505083816001815181106104cd576104cd612fb7565b60200260200101818152505082816002815181106104ed576104ed612fb7565b60200260200101818152505086600201548160038151811061051157610511612fb7565b6020908102919091010152600061052f8263c1be757160e01b611420565b601a8901819055601b8901805461ffff19166001908117909155604080516080810182523381526020808201938452600082840181905260608301819052858152600290915291909120815181546001600160a01b031981166001600160a01b039092169182178355935194955091939092909183916001600160a81b03191617600160a01b8360048111156105c7576105c7612fcd565b0217905550604082810151825460609094015161ffff60a81b19909416600160a81b60ff9283160260ff60b01b191617600160b01b919094160292909217905580518d81526020810183905233917f2ebc740a82c0c6454a29c8aa9db57c66257e2f17d38a783c83c83dd49f52e0fb910160405180910390a2505050505050505050505050565b3360009081526020819052604090206003810154610100900460ff166106895760405163ced5326f60e01b81523360048201526024016102a8565b601a810154156106b45780601a015460405163f3c8229d60e01b81526004016102a891815260200190565b600381015462010000900460ff16600a81106106fe5760405162461bcd60e51b815260206004820152600960248201526812185b9908199d5b1b60ba1b60448201526064016102a8565b60006107086113e7565b905080836004018360ff16600a811061072357610723612fb7565b0155610730826001612fe3565b60038401805460ff92909216620100000262ff00001990921691909117905560408051600180825281830190925260009160208083019080368337019050509050818160008151811061078557610785612fb7565b602090810291909101015260006107a38263c1be757160e01b611420565b601a8601819055601b86018054600260ff19909116811790915560408051608081018252338152602080820184815260ff8a16838501526000606084018190528681529490915291909220825181546001600160a01b039091166001600160a01b0319821681178355925194955092939092909183916001600160a81b03191617600160a01b83600481111561083b5761083b612fcd565b02179055506040820151815460609093015161ffff60a81b19909316600160a81b60ff9283160260ff60b01b191617600160b01b91909316029190911790555050505050565b600081116108c65760405162461bcd60e51b81526020600482015260126024820152710416d6f756e74206d757374206265203e20360741b60448201526064016102a8565b3360009081526001602052604090205481111561091c5760405162461bcd60e51b8152602060048201526014602482015273496e73756666696369656e742062616c616e636560601b60448201526064016102a8565b336000908152600160205260408120805483929061093b908490612fa4565b9091555050604051339082156108fc029083906000818181858888f1935050505015801561096d573d6000803e3d6000fd5b5060405181815233907f7fcf532c15f0a6db0bd6d0e038bea71d30d808c7d98cb3bf7268a95bf5081b659060200160405180910390a250565b3360009081526020819052604090206003810154610100900460ff166109e15760405163ced5326f60e01b81523360048201526024016102a8565b601a81015415610a0c5780601a015460405163f3c8229d60e01b81526004016102a891815260200190565b80543360009081526001602052604081208054839290610a2d908490612ffc565b90915550610a3c905082611266565b60405133907f922266fb1e763ddcdd5e249b47cd8c84ba8a773e5188bef1471abcd480fc9d2490600090a25050565b600083815260026020908152604080832081516080810190925280546001600160a01b03811683528493830190600160a01b900460ff166004811115610ab357610ab3612fcd565b6004811115610ac457610ac4612fcd565b8152905460ff600160a81b820481166020840152600160b01b9091041660409091015280519091506001600160a01b0316610b1557604051634574ee2760e01b8152600481018690526024016102a8565b610b2085858561142e565b80516001600160a01b03166000908152602081905260409020601a8101548614610b6057604051634574ee2760e01b8152600481018790526024016102a8565b600086815260026020526040812080546001600160b81b0319169055601a820155600182602001516004811115610b9957610b99612fcd565b03610d0d5760008060008088806020019051810190610bb89190613025565b93509350935093508460000154816001600160801b031614610c6e5785518554604080519182526001600160801b03841660208301526001600160a01b03909216917fd0d70f1d52516d7c8a0a12261ee4254204509ffaae5b2cc9bf9a4aedae49c87d910160405180910390a2845486516001600160a01b031660009081526001602052604081208054909190610c50908490612ffc565b90915550610c5f905085611266565b60019650505050505050610e12565b60038501805460ff191660019081179091556000600287018190558751610c98928892889161149a565b610cab5760019650505050505050610e12565b610cbd8587600001518560018061149a565b610cd05760019650505050505050610e12565b610ce28587600001518460008061149a565b610cf55760019650505050505050610e12565b610d048587600001518c611549565b50505050610e0b565b600282602001516004811115610d2557610d25612fcd565b03610d5457600085806020019051810190610d409190613087565b9050610d4e8284838a61168f565b50610e0b565b600382602001516004811115610d6c57610d6c612fcd565b03610d9557600085806020019051810190610d879190613087565b9050610d4e8284838a6117c3565b600482602001516004811115610dad57610dad612fcd565b03610dd657600085806020019051810190610dc89190613087565b9050610d4e8284838a611b39565b81602001516004811115610dec57610dec612fcd565b604051633f14c87f60e11b815260ff90911660048201526024016102a8565b6001925050505b9392505050565b3360009081526020819052604090206003810154610100900460ff16610e545760405163ced5326f60e01b81523360048201526024016102a8565b601a81015415610e7f5780601a015460405163f3c8229d60e01b81526004016102a891815260200190565b60408051600180825281830190925260009160208083019080368337019050509050600e82016001015481600081518110610ebc57610ebc612fb7565b60209081029190910101526000610eda8263c1be757160e01b611420565b601a8401819055601b8401805460ff19166003908117909155604080516080810182523381526020808201938452600182840152600060608301819052858152600290915291909120815181546001600160a01b031981166001600160a01b039092169182178355935194955091939092909183916001600160a81b03191617600160a01b836004811115610f7157610f71612fcd565b02179055506040820151815460609093015161ffff60a81b19909316600160a81b60ff9283160260ff60b01b191617600160b01b9190931602919091179055505050565b60003411610ffe5760405162461bcd60e51b81526020600482015260166024820152754d757374206465706f73697420736f6d657468696e6760501b60448201526064016102a8565b336000908152600160205260408120805434929061101d908490612ffc565b909155505060405134815233907fe1fffcc4923d04b559f4d29a8bfc6cda04eb5b0d3c460751c2402c5c5cc9109c9060200160405180910390a2565b905090565b3360009081526020819052604081206003810154606092906301000000900460ff16810361109c575050604080516000815260208101909152919050565b601b820154610100900460ff16156110c3575060038101546301000000900460ff166110c7565b5060015b8060ff1667ffffffffffffffff8111156110e3576110e3612e37565b60405190808252806020026020018201604052801561110c578160200160208202803683370190505b50925060005b8160ff168160ff16101561117d57826019018160ff16600a811061113857611138612fb7565b602091828204019190069054906101000a900460ff16848260ff168151811061116357611163612fb7565b60ff90921660209283029190910190910152600101611112565b50505090565b33600090815260208190526040902060038101546060919062010000900460ff1667ffffffffffffffff8111156111bc576111bc612e37565b6040519080825280602002602001820160405280156111e5578160200160208202803683370190505b50915060005b600382015460ff620100009091048116908216101561126157816018018160ff16600a811061121c5761121c612fb7565b602091828204019190069054906101000a900460ff16838260ff168151811061124757611247612fb7565b60ff909216602092830291909101909101526001016111eb565b505090565b601a8101541561129557601a81018054600090815260026020526040812080546001600160b81b031916905590555b60005b600382015460ff6201000090910481169082161015611311576000826018018260ff16600a81106112cb576112cb612fb7565b602091828204019190066101000a81548160ff021916908360ff1602179055506000801b826004018260ff16600a811061130757611307612fb7565b0155600101611298565b5060005b600382015460ff63010000009091048116908216101561138f576000826019018260ff16600a811061134957611349612fb7565b602091828204019190066101000a81548160ff021916908360ff1602179055506000801b82600e018260ff16600a811061138557611385612fb7565b0155600101611315565b5060008082556002820181905560038201805460018401805460ff1916905565ffffffffffff19169055601b8201805463ffffffff19169055601c90910155565b60006113de83836006611fed565b90505b92915050565b6000806113f2612104565b90506000611401826034612110565b90506000611418826114136001612131565b612141565b949350505050565b60006113de83836000612173565b600061143984612299565b9050600061144882858561236e565b9050806114685760405163cf6c44e960e01b815260040160405180910390fd5b60405185907f1af0453083661051f6e56e5c070792320652e612154bf9af8637bb1e7655b99d90600090a25050505050565b60006114a6868561244e565b6114be576114b6868684866124c8565b506000611540565b81156115025783866018018460ff16600a81106114dd576114dd612fb7565b602091828204019190066101000a81548160ff021916908360ff16021790555061153c565b83866019018460ff16600a811061151b5761151b612fb7565b602091828204019190066101000a81548160ff021916908360ff1602179055505b5060015b95945050505050565b601b8301546301000000900460ff161561156257505050565b601883015460ff16158061158057506018830154610100900460ff16155b806115905750601983015460ff16155b1561159a57505050565b60038301546115b690601885019062010000900460ff16612724565b60038401805464ff000000001916600160201b60ff9384168102919091179182905590041660151480156115f85750600383015460ff62010000909104166002145b601b84018054911515620100000263ff0000ff191663ffff00ff19909216919091176301000000179055601883015460198401546040805160ff808516825261010090940484166020820152929091168282015260608201839052516001600160a01b038416917f6ab98f64c965ca9cc31074a860efdd4d392827a3c30d6dd1a1625eba8c20a492919081900360800190a2505050565b601b8401805460ff191690556116a5848361244e565b6116c3576116be848460000151600186604001516124c8565b6117bd565b8184601801846040015160ff16600a81106116e0576116e0612fb7565b602091828204019190066101000a81548160ff021916908360ff1602179055506000611720856018018660030160029054906101000a900460ff16612724565b60038601805464ff000000001916600160201b60ff8481169182029290921790925586516040808901518151898516815293166020840152820192909252606081018590529192506001600160a01b0316907f6f19257eea0c3058d30497286827daa6c147ed8be1a906b7d233e4751121ed559060800160405180910390a260158160ff1611156117bb576117bb8585600001516003612836565b505b50505050565b6117cd848361244e565b6117e6576116be848460000151600086604001516124c8565b8184601901846040015160ff16600a811061180357611803612fb7565b602091828204019190066101000a81548160ff021916908360ff160217905550826040015160ff1660010361184457601b8401805461ff0019166101001790555b6000611864856019018660030160039054906101000a900460ff16612724565b60038601805460ff83811665010000000000810265ff00000000001990931692909217909255601b8801805460ff1916905586516040808901518151898616815294166020850152830191909152606082018590529192506001600160a01b03909116907f29a1610b470c6053f82e60c7f4fd1c9073f2475d9b739c6b61bc36c27d22b53c9060800160405180910390a260118160ff1610801561191757506003850154600a630100000090910460ff16105b15611ac55760038501546301000000900460ff1660006119356113e7565b90508087600e018360ff16600a811061195057611950612fb7565b015561195d826001612fe3565b60038801805460ff9290921663010000000263ff000000199092169190911790556040805160018082528183019092526000916020808301908036833701905050905081816000815181106119b4576119b4612fb7565b602090810291909101015260006119d28263c1be757160e01b611420565b601a8a01819055601b8a01805491925060039160ff19166001830217905550604080516080810190915288516001600160a01b03168152602081016003815260ff8616602080830191909152600060409283018190528481526002825291909120825181546001600160a01b039091166001600160a01b031982168117835592840151919283916001600160a81b03191617600160a01b836004811115611a7b57611a7b612fcd565b02179055506040820151815460609093015161ffff60a81b19909316600160a81b60ff9283160260ff60b01b191617600160b01b9190931602919091179055506117bd9350505050565b600060158260ff161115611adb57506002611b22565b600386015460ff600160201b909104811690831603611afc57506004611b22565b600386015460ff600160201b90910481169083161015611b1e57506002611b22565b5060035b611b3186866000015183612836565b505050505050565b606083015160ff16600114611b4e858461244e565b611b6c57611b668585600001518387604001516124c8565b506117bd565b8015611bb4578285601801856040015160ff16600a8110611b8f57611b8f612fb7565b602091828204019190066101000a81548160ff021916908360ff160217905550611c12565b8285601901856040015160ff16600a8110611bd157611bd1612fb7565b602091828204019190066101000a81548160ff021916908360ff160217905550836040015160ff16600103611c1257601b8501805461ff0019166101001790555b601b8501805460ff1916908190556301000000900460ff16611c3d57611b6685856000015184611549565b8015611d05576000611c63866018018760030160029054906101000a900460ff16612724565b60038701805464ff000000001916600160201b60ff8481169182029290921790925587516040808a015181518a8516815293166020840152820192909252606081018690529192506001600160a01b0316907f6f19257eea0c3058d30497286827daa6c147ed8be1a906b7d233e4751121ed559060800160405180910390a260158160ff161115611cfe57611cfe8686600001516003612836565b50506117bd565b6000611d25866019018760030160039054906101000a900460ff16612724565b60038701805465ff000000000019166501000000000060ff8481169182029290921790925587516040808a015181518a8516815293166020840152820192909252606081018690529192506001600160a01b0316907f29a1610b470c6053f82e60c7f4fd1c9073f2475d9b739c6b61bc36c27d22b53c9060800160405180910390a260118160ff16108015611dc957506003860154600a630100000090910460ff16105b15611f785760038601546301000000900460ff166000611de76113e7565b90508088600e018360ff16600a8110611e0257611e02612fb7565b0155611e0f826001612fe3565b60038901805460ff9290921663010000000263ff00000019909216919091179055604080516001808252818301909252600091602080830190803683370190505090508181600081518110611e6657611e66612fb7565b60209081029190910101526000611e848263c1be757160e01b611420565b601a8b01819055601b8b01805491925060039160ff19166001830217905550604080516080810190915289516001600160a01b03168152602081016003815260ff8616602080830191909152600060409283018190528481526002825291909120825181546001600160a01b039091166001600160a01b031982168117835592840151919283916001600160a81b03191617600160a01b836004811115611f2d57611f2d612fcd565b02179055506040820151815460609093015161ffff60a81b19909316600160a81b60ff9283160260ff60b01b191617600160b01b9190931602919091179055506117bd945050505050565b600060158260ff161115611f8e57506002611fd5565b600387015460ff600160201b909104811690831603611faf57506004611fd5565b600387015460ff600160201b90910481169083161015611fd157506002611fd5565b5060035b611fe487876000015183612836565b50505050505050565b7f9e7b61f58c47dc699ac88507c4f5bb9f121c03808c5676a8078fe583e46497015460405163196d0b9b60e01b8152600091600080516020613395833981519152916001600160a01b039091169063196d0b9b90612055908890339089908990600401613114565b6020604051808303816000875af1158015612074573d6000803e3d6000fd5b505050506040513d601f19601f82011682018060405250810190612098919061314d565b8154604051630f8e573b60e21b8152600481018390523360248201529193506001600160a01b031690633e395cec90604401600060405180830381600087803b1580156120e457600080fd5b505af11580156120f8573d6000803e3d6000fd5b50505050509392505050565b600061105960026129aa565b600082612124576121216000612131565b92505b6113de8360ff8416612a4f565b60006113e18260ff166002612aef565b600082612155576121526000612131565b92505b81612167576121646000612131565b91505b6113de83836000612b96565b7f878245876662ba28a480c5ea71726db859fb50222b0a3d7cbbc21cfa336faf0080546000805160206133958339815191528054604051637d6e912360e11b81529293926001600160a01b039091169063fadd2246906121d79089906004016131a2565b600060405180830381600087803b1580156121f157600080fd5b505af1158015612205573d6000803e3d6000fd5b5050506002820154604051633263b83b60e01b81526001600160a01b039091169150633263b83b9086906122419087908b908b906004016131b5565b6000604051808303818588803b15801561225a57600080fd5b505af115801561226e573d6000803e3d6000fd5b505050505061227d8387612c52565b815482600061228b836131e7565b919050555050509392505050565b60008181527f878245876662ba28a480c5ea71726db859fb50222b0a3d7cbbc21cfa336faf0160205260408120546060917f878245876662ba28a480c5ea71726db859fb50222b0a3d7cbbc21cfa336faf0091900361230b5760405163d66ca67560e01b815260040160405180910390fd5b60008381526001820160209081526040918290208054835181840281018401909452808452909183018282801561236157602002820191906000526020600020905b81548152602001906001019080831161234d575b5050505050915050919050565b6000808351602061237f9190612ffc565b61238a906020612ffc565b9050600084826040516020016123a1929190613200565b604051602081830303815290604052905060006123c960008051602061339583398151915290565b60038101546040516378542ead60e01b81529192506001600160a01b0316906378542ead90612400908a9086908a90600401613222565b6020604051808303816000875af115801561241f573d6000803e3d6000fd5b505050506040513d601f19601f82011682018060405250810190612443919061325b565b979650505050505050565b600060ff82161580612463575060348260ff16115b1561248657604051636a974d6b60e11b815260ff831660048201526024016102a8565b600061249360018461327d565b60ff166001901b90508084601c0154166000146124b45760009150506113e1565b601c84018054909117905550600192915050565b60006124d26113e7565b905082156125345780856004018360ff16600a81106124f3576124f3612fb7565b015560006018860160ff8416600a811061250f5761250f612fb7565b602091828204019190066101000a81548160ff021916908360ff16021790555061258a565b8085600e018360ff16600a811061254d5761254d612fb7565b015560006019860160ff8416600a811061256957612569612fb7565b602091828204019190066101000a81548160ff021916908360ff1602179055505b6040805160018082528183019092526000916020808301908036833701905050905081816000815181106125c0576125c0612fb7565b602090810291909101015260006125de8263c1be757160e01b611420565b601a8801819055601b8801805460ff19166004908117909155604080516080810182526001600160a01b038a168152602081019290925260ff8716908201529091506060810186612630576002612633565b60015b60ff1690526000828152600260209081526040909120825181546001600160a01b039091166001600160a01b031982168117835592840151919283916001600160a81b03191617600160a01b83600481111561269157612691612fcd565b0217905550604082810151825460609485015161ffff60a81b19909116600160a81b60ff9384160260ff60b01b191617600160b01b918316919091021790925580518815158152918716602083015281018390526001600160a01b038816917f1dd35d4f13c337a7ee1a5a7fa4cd693c2b3bfd0585d78fdcaf2a07a376f92224910160405180910390a250505050505050565b60008080805b8460ff168160ff1610156127df576000868260ff16600a811061274f5761274f612fb7565b602081049091015460ff601f9092166101000a9004169050600081900361277657506127d7565b600061278182612ce1565b90508060ff166001036127ae578361279881613296565b94506127a79050600b866132b5565b94506127d4565b600a8160ff16106127c4576127a7600a866132b5565b6127d160ff8216866132b5565b94505b50505b60010161272a565b505b60158261ffff161180156127f8575060008160ff16115b1561281c57612808600a836132d7565b915080612814816132f2565b9150506127e1565b60ff8261ffff16111561282e5760ff91505b509392505050565b6003830154610100900460ff1661284c57505050565b8254600060ff83166002036128c75761286682600261330f565b601b86015490915062010000900460ff16156128945761288760028361333c565b6128919082612ffc565b90505b6001600160a01b038416600090815260016020526040812080548392906128bc908490612ffc565b909155506129039050565b8260ff1660040361290357506001600160a01b0383166000908152600160205260408120805483928392916128fd908490612ffc565b90915550505b60018501805460ff85811660ff19928316811790935560038801805461ff001916908190556000808a55601b8a018054909416909355601a8901929092556040805193845260208401859052600160201b830482168482015265010000000000909204166060830152516001600160a01b038616917f28b7d393112cca8f1c7daa79b22d76c79a8863aa4fac90c579c535ade916161e919081900360800190a25050505050565b7f9e7b61f58c47dc699ac88507c4f5bb9f121c03808c5676a8078fe583e464970154604051636baeb74560e11b8152600091600080516020613395833981519152916001600160a01b039091169063d75d6e8a90612a0c908690600401613350565b6020604051808303816000875af1158015612a2b573d6000803e3d6000fd5b505050506040513d601f19601f82011682018060405250810190610e12919061314d565b6000600160f81b8160008051602061339583398151915260018101546040516367a68c5560e11b815260048101889052602481018790526001600160f81b0319851660448201529192506001600160a01b03169063cf4d18aa906064016020604051808303816000875af1158015612acb573d6000803e3d6000fd5b505050506040513d601f19601f82011682018060405250810190611540919061314d565b7f9e7b61f58c47dc699ac88507c4f5bb9f121c03808c5676a8078fe583e464970154604051639cd07acb60e01b8152600091600080516020613395833981519152916001600160a01b0390911690639cd07acb90612b53908790879060040161335e565b6020604051808303816000875af1158015612b72573d6000803e3d6000fd5b505050506040513d601f19601f82011682018060405250810190611418919061314d565b6000808215612baa5750600160f81b612bae565b5060005b6000600080516020613395833981519152600181015460405163022f65e760e31b815260048101899052602481018890526001600160f81b0319851660448201529192506001600160a01b03169063117b2f38906064016020604051808303816000875af1158015612c24573d6000803e3d6000fd5b505050506040513d601f19601f82011682018060405250810190612c48919061314d565b9695505050505050565b60008281527f878245876662ba28a480c5ea71726db859fb50222b0a3d7cbbc21cfa336faf0160205260409020547f878245876662ba28a480c5ea71726db859fb50222b0a3d7cbbc21cfa336faf009015612cc057604051633f06d22b60e01b815260040160405180910390fd5b6000838152600182016020908152604090912083516117bd92850190612d3e565b600060ff82161580612cf6575060348260ff16115b15612d1957604051636a974d6b60e11b815260ff831660048201526024016102a8565b6000612d2660018461327d565b9050612d33600d82613372565b610e12906001612fe3565b828054828255906000526020600020908101928215612d79579160200282015b82811115612d79578251825591602001919060010190612d5e565b50612d85929150612d89565b5090565b5b80821115612d855760008155600101612d8a565b60008060008060608587031215612db457600080fd5b8435935060208501359250604085013567ffffffffffffffff80821115612dda57600080fd5b818701915087601f830112612dee57600080fd5b813581811115612dfd57600080fd5b886020828501011115612e0f57600080fd5b95989497505060200194505050565b600060208284031215612e3057600080fd5b5035919050565b634e487b7160e01b600052604160045260246000fd5b600082601f830112612e5e57600080fd5b813567ffffffffffffffff80821115612e7957612e79612e37565b604051601f8301601f19908116603f01168101908282118183101715612ea157612ea1612e37565b81604052838152866020858801011115612eba57600080fd5b836020870160208301376000602085830101528094505050505092915050565b600080600060608486031215612eef57600080fd5b83359250602084013567ffffffffffffffff80821115612f0e57600080fd5b612f1a87838801612e4d565b93506040860135915080821115612f3057600080fd5b50612f3d86828701612e4d565b9150509250925092565b6020808252825182820181905260009190848201906040850190845b81811015612f8257835160ff1683529284019291840191600101612f63565b50909695505050505050565b634e487b7160e01b600052601160045260246000fd5b818103818111156113e1576113e1612f8e565b634e487b7160e01b600052603260045260246000fd5b634e487b7160e01b600052602160045260246000fd5b60ff81811683821601908111156113e1576113e1612f8e565b808201808211156113e1576113e1612f8e565b805160ff8116811461302057600080fd5b919050565b6000806000806080858703121561303b57600080fd5b6130448561300f565b93506130526020860161300f565b92506130606040860161300f565b915060608501516001600160801b038116811461307c57600080fd5b939692955090935050565b60006020828403121561309957600080fd5b6113de8261300f565b60005b838110156130bd5781810151838201526020016130a5565b50506000910152565b600081518084526130de8160208601602086016130a2565b601f01601f19169290920160200192915050565b6054811061311057634e487b7160e01b600052602160045260246000fd5b9052565b8481526001600160a01b038416602082015260806040820181905260009061313e908301856130c6565b905061154060608301846130f2565b60006020828403121561315f57600080fd5b5051919050565b60008151808452602080850194506020840160005b838110156131975781518752958201959082019060010161317b565b509495945050505050565b6020815260006113de6020830184613166565b8381526060602082015260006131ce6060830185613166565b905063ffffffff60e01b83166040830152949350505050565b6000600182016131f9576131f9612f8e565b5060010190565b600083516132128184602088016130a2565b9190910191825250602001919050565b6060815260006132356060830186613166565b828103602084015261324781866130c6565b90508281036040840152612c4881856130c6565b60006020828403121561326d57600080fd5b81518015158114610e1257600080fd5b60ff82811682821603908111156113e1576113e1612f8e565b600060ff821660ff81036132ac576132ac612f8e565b60010192915050565b61ffff8181168382160190808211156132d0576132d0612f8e565b5092915050565b61ffff8281168282160390808211156132d0576132d0612f8e565b600060ff82168061330557613305612f8e565b6000190192915050565b80820281158282048414176113e1576113e1612f8e565b634e487b7160e01b600052601260045260246000fd5b60008261334b5761334b613326565b500490565b602081016113e182846130f2565b82815260408101610e1260208301846130f2565b600060ff83168061338557613385613326565b8060ff8416069150509291505056fe9e7b61f58c47dc699ac88507c4f5bb9f121c03808c5676a8078fe583e4649700a26469706673582212207b75c3534125d4bc3381cf97ad1f2ef906116ea4a016e6c70d68d08709ea5cf364736f6c63430008180033",
  "linkReferences": {},
  "deployedLinkReferences": {}
}